:100000000C94AB170C94D3170C94D3170C9478273B
:100010000C9478270C9478270C94D3170C94D3174E
:100020000C94D3170C94D3170C94D3170C94D317A8
:100030000C94D3170C94D3170C94D3170C94D31798
:100040000C94B7250C94D3170C9427260C940126F6
:100050000C94D3170C94D3170C94D3170C94D31778
:100060000C9459260C94D3174E414E494E4954597D
:10007000494E46CDCCCC3D0AD7233C17B7D1387773
:10008000CC2B329595E6241FB14F0A000020410089
:1000900000C84200401C4620BCBE4CCA1B0E5AAED3
:1000A000C59D74FFE0FFD1AFFF32FFD0FFFEFFE040
:1000B000FFD1AEFFD0FFFEFFE0FFD11000FFFEFF3B
:1000C000D0FFE0FFC1FFD1AED580A83FD300408D67
:1000D000142000A1C8DA1281CFD9F1DB402EA4A6EA
:1000E000AFFFD0FFFE000000080002010000030483
:1000F00007000000000000000000000000250028AC
:10010000002B0000000000240027002A0004040443
:1001100004040404040202020202020303030303B0
:10012000030102040810204080010204081020018D
:100130000204081020000D12FEFC0801B2036F201B
:10014000FFFE0BFE08FE000000030001010808038B
:10015000010080808080808000800302020401060C
:10016000A0A006070706000028287C28F8505005A4
:100170000A0A0600FF2070A8A0702828A87020088E
:100180000808090000649468081016292606080863
:100190000801006090906094889864010202020057
:1001A000068080030A0A0400FE2040408080808090
:1001B000404020030A0A0401FE8040402020202005
:1001C000404080030303040005A040A00505050688
:1001D00000012020F820200203030300FE4040809D
:1001E000030101040003E001010103010080030891
:1001F0000803000020204040404080800508080699
:1002000000007088888888888870020808060100C5
:1002100040C040404040404005080806000070884B
:100220000808304080F8050808060000708808308B
:10023000080888700508080600001030505090F833
:100240001010050808060000784040700808887003
:10025000050808060000708880F088888870050806
:1002600008060000F8081020204040400508080655
:10027000000070888870888888700508080600006B
:10028000708888887808887001060603010080005D
:10029000000000800208080300FE4000000000404B
:1002A000408003050506010120408040200403032F
:1002B000050002F000F00305050601018040204022
:1002C0008004080806010060901020404000400AA9
:1002D00009120B00FF1F0020804D409240A240A455
:1002E000809B0040003E000708080700001010280F
:1002F00028447C8282050808070100F08888F0887D
:100300008888F0060808080100788480808080844E
:1003100078060808080100F0888484848488F00541
:100320000808070100F88080F8808080F805080838
:10033000060100F88080F0808080800608080801AF
:1003400000788480808C84847C06080808010084FE
:100350008484FC84848484010808030100808080F4
:1003600080808080800408080500001010101010A4
:100370001090600508080701008890A0E090908820
:100380008804080806010080808080808080F00753
:10039000080809010082C6C6AAAA92929206080815
:1003A000080100C4C4A4A494948C8C060808080115
:1003B000007884848484848478050808070100F028
:1003C0008888F0808080800709090801FF7884848C
:1003D0008484948C7C02050808070100F08888F06A
:1003E0008888888805080807010070888070088858
:1003F0008870050808050000F82020202020202013
:1004000006080808010084848484848484780708AA
:100410000807000082824444442828100908100973
:100420000000888088804900490055002200220091
:10043000220005080807010088885020505088884D
:1004400007080807000082444428281010100508F7
:1004500008070100F8081020204080F8020A0A036B
:1004600001FEC08080808080808080C003080803F7
:1004700000008080404040402020020A0A0300FE25
:10048000C04040404040404040C0050505060003D4
:1004900020205050880601010600FEFC02020203E3
:1004A00000078040050606050000E0107090906887
:1004B0000508080600008080B0C88888C8B0040617
:1004C0000605000060908080906005080806000026
:1004D00008086898888898680406060500006090F7
:1004E000F08090600408080400003040E040404084
:1004F00040400508080600FE6898888898680870DB
:100500000508080600008080B0C88888888801082F
:10051000080200008000808080808080020A0A0239
:10052000FFFE400040404040404040800408080535
:100530000000808090A0C0A09090010808020000F8
:100540008080808080808080070606080000EC9212
:1005500092929292050606060000B0C888888888A4
:100560000506060600007088888888700508080659
:1005700000FEB0C88888C8B080800508080600FE64
:100580006898888898680808030606040000A0C0D8
:1005900080808080040606050000609060109060F6
:1005A0000308080400004040E0404040406004066A
:1005B00006050000909090909070050606060000D9
:1005C0008888505020200706060800009292545454
:1005D000282805060606000088502050888805084F
:1005E0000805FFFE48485050302020C0040606058C
:1005F0000000F010204080F0030A0A0300FE2040B3
:100600004040804040404020010A0A0301FE8080B3
:100610008080808080808080030A0A0300FE804002
:10062000404020404040408006020207000364989A
:10063000FFFFFFFFFFFFFFFFFFFFFFFFFFFFFFFFCA
:10064000FFFFFFFFFFFFFFFFFFFFFFFFFFFFFFFFBA
:10065000FF0000000300010108080301FE80008084
:1006600080808080800508080601FF1070A8A0A087
:10067000A87040050808060000304840E0404048A7
:10068000B00406060500019060909060900508088F
:1006900006000088888850F820F820010A0A030123
:1006A000FE80808080000080808080050A0A06002D
:1006B000FE7088C07098C87018887003010103002C
:1006C00007A007070709010038449AA29A44380393
:1006D0000505040003E020A000E005050506000074
:1006E0002850A05028050303070102F80808030159
:1006F00001040003E00707070901003844BAB2AA61
:100700004438030101030007E0040404040004600A
:100710009090600507070600002020F8202000F8D0
:1007200003040403000460A040E003040403000485
:10073000E04020C0020202030007408004080805D0
:1007400000FE9090909090F08080060A0A0600FECD
:100750007CE8E8E86828282828280201010300032B
:10076000C00202020300FE40C00204040300044071
:10077000C04040030505040003E0A0E000E00505DB
:1007800005060000A0502850A009081009000044E8
:1007900000C4004800480011001300278021000811
:1007A000080809000044C448481315222709081006
:1007B000090000E00044002400C8000900130017ED
:1007C0008021000408080601FE20002020408090BF
:1007D00060070B0B07000020100010102828447C35
:1007E0008282070B0B070000081000101028284415
:1007F0007C8282070B0B07000010280010102828AD
:10080000447C8282070B0B0700001428001010287C
:1008100028447C8282070A0A07000028001010285A
:1008200028447C8282070B0B070000102810101050
:100830002828447C82820908100A00001F801800C2
:1008400028002F804800780088008F80060A0A0858
:1008500001FE78848080808084781030050B0B073F
:100860000100402000F88080F8808080F8050B0BA4
:10087000070100102000F88080F8808080F8050BC8
:100880000B070100205000F88080F8808080F80578
:100890000A0A0701005000F88080F8808080F80282
:1008A0000B0B03000080400040404040404040406F
:1008B000020B0B03010040800080808080808080DC
:1008C00080030B0B03000040A0004040404040402C
:1008D0004040030A0A030000A0004040404040405E
:1008E0004040070808080000784442F24242447839
:1008F000060B0B080100285000C4C4A4A494948CD7
:100900008C060B0B080100201000788484848484FA
:100910008478060B0B080100081000788484848416
:10092000848478060B0B08010020500078848484AE
:1009300084848478060B0B08010028500078848496
:100940008484848478060A0A080100480078848434
:100950008484848478050505060001885020508829
:10096000060A0A0801FF04788C9494A4A4C4788031
:10097000060B0B0801002010008484848484848486
:1009800078060B0B0801000810008484848484849A
:100990008478060B0B080100205000848484848432
:1009A000848478060A0A08010048008484848484C8
:1009B000848478070B0B0700000810008244442849
:1009C000281010100508080701008080F08888F0C2
:1009D0008080040808050000609090A0909090A08E
:1009E000050909050000402000E01070909068059E
:1009F0000909050000204000E0107090906805098A
:100A000009050000205000E0107090906805090969
:100A100005000050A000E0107090906805080805DF
:100A200000005000E0107090906805090905000072
:100A3000205020E01070909068070606080000EC37
:100A4000127E90926C0408080500FE6090808090F1
:100A50006020600409090500004020006090F080DB
:100A600090600409090500002040006090F080902B
:100A70006004090905000040A0006090F0809060CB
:100A8000040808050000A0006090F0809060020952
:100A90000902FF00804000404040404040020909F8
:100AA000020000408000808080808080030909026D
:100AB000FF0040A00040404040404003080802FFC3
:100AC00000A00040404040404005090906000040A9
:100AD000789078888888887004090905000050A0FB
:100AE00000E09090909090050909060000402000D9
:100AF0007088888888700509090600001020007039
:100B000088888888700509090600002050007088D0
:100B100088888870050909060000285000708888B8
:100B2000888870050808060000500070888888884A
:100B3000700505050600012000F8002007060606DE
:100B4000FF003A4C546444B80409090500004020F1
:100B5000009090909090700409090500001020000A
:100B600090909090907004090905000040A00090BA
:100B70009090909070040808050000A0009090905C
:100B8000909070050B0B05FFFE0810004848505070
:100B9000302020C0050A0A0600FE8080B0C8888880
:100BA000C8B08080050A0A05FFFE50004848505032
:100BB000302020C0002F2CF0F61404DC0B9020FF16
:100BC000F81BF719F80000000700000417170902C6
:100BD0000030707070707070707060606060606025
:100BE0006060400070F0F0E0080A0A0E030DE3C7F1
:100BF000C7C7C7C3C3C3C3C20E12240F0102011863
:100C000003180310023006303FFC04600C600C60D7
:100C10000C4008C0FFF8188011803180318031000D
:100C200023000C19320F01FD0600060006001FC04C
:100C30003FF0666066006600660076003E001F803A
:100C400007C007E00670063006308630C630E66022
:100C5000FFC07F8006000600060014143C1601FF4A
:100C60001E00C0630180430380C18300C18600C1B0
:100C70008C00C19C006118006330003C73C0006CA4
:100C80006000C860019830039830031830061830AF
:100C90000E08201C0C601807803000001316421547
:100CA000020003C00004E000086000186000186043
:100CB0000018600018C0001D80000F00000C00002C
:100CC0001C3FE03E0E80770600638600C18600C1AF
:100CD000C600C0EC00C07C00C03C00601E00302F8D
:100CE000C01FC380030A0A08030DE0C0C0C0C0C013
:100CF000C0C0C0C0071E1E0A02FB020C181830300C
:100D000060606060C0C0C0C0C0C0C0C0C0C0E060A3
:100D10006060703038180C02071E1E0A01FB8060EC
:100D20003038181C0C0C0C0E0606060606060606C5
:100D300006060C0C0C0C1818303060800C0D1A0EC6
:100D4000010B0600060086006630F2F01B800600EC
:100D50001B8072F0E6300620060006000C0B160D14
:100D6000010306000600060006000600FFF006006C
:100D700006000600060006000408080702FB70F0E3
:100D80003030302040C00901020B0108FF8004040C
:100D90000407020070F0F0E00D1E3C0F01FB00188C
:100DA00000380030003000700060006000E000C0DB
:100DB00001C00180018003800300070006000600D7
:100DC0000E000C000C001C00180038003000300031
:100DD000700060006000E000C0000D13260F0100ED
:100DE000078018C02060603040304038C018C018FC
:100DF000C018C018C018C018C018C01060106030EB
:100E0000302018400F800B13260F020002001E0036
:100E10007E008600060006000600060006000600AA
:100E200006000600060006000600060006000F0089
:100E30007FE00B13260F02000F8030C060606060FF
:100E400060600060006000C000C001800300070017
:100E500006000C00180030207020E020FFE00B138B
:100E6000260F02001F00718060C0E0C000C000C0FB
:100E7000018003000F0003C000C000E000600060BC
:100E80000060006080C0C1807F000C13260F01004D
:100E9000004001C003C003C006C00CC00CC018C095
:100EA00030C030C060C0E0C0FFF000C000C000C073
:100EB00000C000C007F00B13260F02003FE0200027
:100EC000200060006000600060007F0061C000C022
:100ED00000600060006000600060004080C0C18071
:100EE0003F000C14280F020000C007000E0018007D
:100EF0003000700060006000CF80F0E0E060C07003
:100F0000C030C030C03060306020206030400F8082
:100F10000C13260F0200FFF08060806000E000C02C
:100F200000C00180018003000300070006000600E6
:100F30000C000C001C001800380030000C13260FA9
:100F400002001F8030C06060E060E060E060F8C0D8
:100F50007F801F801FC031E06070C070C030C03023
:100F6000C020602070401F800C14280F02FF0F80EB
:100F700031C020E04060C070C030C030C030C030F0
:100F8000607030B01F3000600060006000C0018001
:100F900007001E003000040F0F07020070F0F06021
:100FA0000000000000000070F0F0E00414140702DC
:100FB000FB70F0F060000000000000000070F030F6
:100FC00030302040C00C0A140E0104003000F0073D
:100FD000C03E00F800F0007E000F8001F000700CB1
:100FE000060C0E0106FFF00000000000000000FFEC
:100FF000F00C0A140E01046000F8001F0007E00066
:10100000F001F007C03E00F000C0000A172E0E02EB
:10101000001F00638041C0C0C0C0C080C000C001CC
:101020008001800300030006000E000C000C000C81
:10103000000C00000000000E001E001E001C001826
:10104000194B1A01FB003F8001C0E00200380C0080
:101050001C18000C103C8E204386608187418183E0
:10106000C10183C30183C30183C30183C30183C35C
:101070000183C30182E1818661838470C5C83078B1
:10108000F03800001C00040F001C03C070007F80BB
:1010900013143C13000000400000E00000E00001D9
:1010A000E00001F00001B000033000033800031835
:1010B00000061C00061C00060C000FFE000C0600BB
:1010C000080600180700180300100300300380FE14
:1010D0000FE00E14281101003FC0F07030383018B6
:1010E000301830183018303030E03FE03070303891
:1010F000301C300C300C300C300C30183030FFC04D
:101100000E142811010003F80C1C100830006000B8
:1011100060004000C000C000C000C000C000C000AF
:10112000C00060006000700038041C1807E0111453
:101130003C1301003FE000F03800300C00300600A6
:1011400030030030030030038030018030018030F4
:101150000180300180300180300180300300300395
:1011600000300300300600300C00303800FFE00093
:101170000D1428100100FFF0301030103010300036
:1011800030003000300030003FE0304030003000B0
:10119000300030003000300830083018FFF80C14F0
:1011A000280F0100FFF030103010301030003000F8
:1011B0003000300030003FC0308030003000300060
:1011C00030003000300030003000FE0012143C13BC
:1011D000010001FE00060F000800001000002000C2
:1011E00000600000400000C00000C00000C000001F
:1011F000C00000C01FC0C00700C003006003006043
:1012000003003003001803000C030003FC00131458
:101210003C150100FC07E030018030018030018086
:101220003001803001803001803001803001803F0A
:10123000FF8030018030018030018030018030013A
:1012400080300180300180300180300180FC07E077
:101250000614140A0200FC303030303030303030A8
:10126000303030303030303030FC0B19320AFDFB7A
:101270000FE00180018001800180018001800180F8
:101280000180018001800180018001800180018056
:1012900001800180018001800100010003006200E3
:1012A000FC0011143C130100FC7F003018003030AA
:1012B0000030600030E00031C000318000330000B9
:1012C0003600003E00003600003700003380003159
:1012D000C00030E000307000307800303C00301E3C
:1012E00000FC0F800D14280F0100FC0030003000BE
:1012F000300030003000300030003000300030006E
:101300003000300030003000300030083008301835
:10131000FFF818143C1A0100F8003E3C00383C006D
:10132000783E00783600D83600D8370098330198D8
:1013300033819831831831C31831C61830C618303C
:10134000E618306C18307C183038183038183038BF
:1013500018FC10FF13143C150100F007E038018061
:101360003C01803C01803E01803701803381803325
:10137000818031C18030E1803061803071803039CE
:1013800080301D80300D80300F803007803003802A
:10139000300380FC018011143C13010003F0000CA9
:1013A0001800100C0030060020030060030040030A
:1013B00080C00180C00180C00180C00180C0018068
:1013C000C00180E0010060030060020030060038C8
:1013D00004000C180007E0000F14281101003FE082
:1013E000F038301C300E3006300630063006300C37
:1013F000300C343833E03000300030003000300042
:1014000030003000FE0013194B1301FB03F0000CF9
:101410001800100C00300600200300600300400399
:1014200080C00180C00180C00180C00180C00180F7
:10143000C00180E001006003006003003006001876
:1014400004000C180007F000007000001800000EE7
:10145000200007C000018012143C1201003FC000B0
:10146000F07000301800300C00300C00300C0030F0
:101470000C003018003070003FE0003FC00031C069
:101480000030E000307000307000303800303C0038
:10149000301C00300F00FC0FC00C14280F02000F8E
:1014A000E030E04040C000C000E000F8007E007F77
:1014B000001FC007E001F000F00070003000308035
:1014C00020C060E0C07F00101428120100FFFF81DF
:1014D00083818181810180018001800180018001FF
:1014E00080018001800180018001800180018001F4
:1014F0008001800FF013143C150100FC07E030015F
:1015000080300180300180300180300180300180E6
:101510003001803001803001803001803001803026
:1015200001803001803001803001001803001C066A
:10153000000E0C0003F00014143C150000FE03F034
:101540003800C01800801C01800C01800E03000EC2
:101550000300060300070600070600030600038CCD
:1015600000018C0001CC0001D80000D80000F80078
:1015700000F0000070000060001B14501B0000FE13
:10158000040FE038040300180E0300180E03001CBB
:101590000F03001C1B02000C1B06000C1B86000C1A
:1015A0003186000E3186000E31C4000660CC000684
:1015B00060CC000760EC0007C06C0003C07800033B
:1015C000C078000380380003803800030030001327
:1015D000143C1400007F1FC03C07001C06000E06D0
:1015E00000070C00071C0003980001F00001F00048
:1015F00000E00000F00001F00001B800031C00074B
:101600000C00060E000C07001C03803803C0FF0FFF
:10161000E012143C130000F01FC03807001C060045
:101620000C0C000E0C000718000718000330000314
:10163000B00001E00001E00000C00000C00000C0F8
:101640000000C00000C00000C00000C00000C000DA
:1016500007F8000E14281101007FFC601C40384080
:1016600078007000E000E001C003C00380070007BD
:10167000000E001E001C00380038047004F00CFF3F
:10168000FC071E1E0A02FBFEC0C0C0C0C0C0C0C016
:10169000C0C0C0C0C0C0C0C0C0C0C0C0C0C0C0C04A
:1016A000C0C0C0C0FE0D1E3C0F01FBC000C00060EA
:1016B000006000700030003000180018001C000CA2
:1016C000000C000E0006000600030003000380016A
:1016D00080018000C000C000C00060006000700099
:1016E00030003000180018071E1E0A01FBFE060617
:1016F000060606060606060606060606060606068A
:1017000006060606060606060606FE0C0F1E100254
:1017100009020006000F000F001B001B8011803122
:10172000C031C060C060E06060C070C03080200D1B
:1017300001020F01FDFFF80707070A001060F038EB
:10174000180C04020D0F1E0F01000FC030E0706076
:101750006060006000600FE03FE07E60F060E0608D
:10176000C060C06041E03E780F18301000003000CB
:10177000F000300030003000300030003000300029
:1017800030F031F8361C3C0C380E3006300630068E
:10179000300630063004300C30081C1007E00C0F07
:1017A0001E0E010007E01860202060004000C0000D
:1017B000C000C000C000C000C000600070203870D1
:1017C0001F800F1830110100001800780018001851
:1017D0000018001800180018001807F8183820180A
:1017E00060184018C018C018C018C018C018C01819
:1017F0006018703838DE0F180D0F1E0F010007C07B
:101800001860203060184018C018FFF0C000C000F9
:10181000C000E0006000700838300FC00B18300ABC
:10182000010003E004C01800100030003000300058
:1018300030003000FF003200300030003000300057
:101840003000300030003000300030003000300018
:10185000FE000F172E1001F8078618FC206060307C
:10186000603060306030706038401F8008001000C9
:101870003C003FE00FF83FFC707CE00CC00CC0085F
:10188000601070201FC01018301201001000F0000E
:101890003000300030003000300030003000307058
:1018A0003188360C380C380C300C300C300C300CC5
:1018B000300C300C300C300C300CFC3F0615150988
:1018C000010030707060000030F030303030303067
:1018D000303030303030FC091D3A08FCF80180030C
:1018E0008003800300000000000180078001800168
:1018F00080018001800180018001800180018001E0
:10190000800180018001800180018001800100034D
:101910000002007C00F8000F18301001001000F0E9
:101920000030003000300030003000300030003037
:10193000FC307030E03180330036003E0036003736
:1019400000338031C030E030703078FC3E0618182B
:1019500009010010F030303030303030303030306D
:1019600030303030303030303030FC180F2D1A012C
:1019700000F0F07833198C341A0C381C0C381C0C1D
:1019800030180C30180C30180C30180C30180C3083
:10199000180C30180C30180C30180CFC7E3F100F4F
:1019A0001E1201007070B188360C380C380C300CE7
:1019B000300C300C300C300C300C300C300C300C47
:1019C000FC3F0E0F1E10010007C018702038601871
:1019D000401CC00CC00CC00CC00CC00CE00860184F
:1019E000701038200FC00F172E1101F870F0B318C7
:1019F000341C380C300E3006300630063006300607
:101A00003004300C30083C1037E03000300030003B
:101A10003000300030003000FE000E172E1001F8AC
:101A200007901870203060304030C030C030C03077
:101A3000C030C030C0306030607030B01F30003017
:101A400000300030003000300030003001FC0B0F5F
:101A50001E0D010031E0F3E0344038403800300022
:101A600030003000300030003000300030003000F6
:101A7000FE00090F1E0C02003F004300C100C00021
:101A8000E000F8007E003F000F800380018081802D
:101A90008100C300FC000A14280B01001000300074
:101AA000300030003000FFC0310030003000300026
:101AB00030003000300030003000300030003000A6
:101AC00030801F400F0F1E1101003018F0783018C1
:101AD00030183018301830183018301830183018C6
:101AE0003018303818DE0F180F0F1E100000FC3EA3
:101AF000380C380818181C180C100C300E30062042
:101B000007600740034003C001800100160F2D1736
:101B10000000FC107C301818383810183830183C89
:101B2000301C6C300C6E200C4E600CC6600EC74032
:101B30000683400783C00783C003018002010010B1
:101B40000F1E100000FE3F3C1C1C100E30066007EC
:101B5000C003C001C003C006E00C700C3818183870
:101B60001CFC3F10172E10FFF87E1F1C061C040CD7
:101B70000C0E0C0E08061807180310033003B001F2
:101B8000A001E001E000C000C000800180018003EE
:101B9000007E007C00F8000C0F1E0E01007FF0405C
:101BA0006040E001C001800380070006000E001CB9
:101BB000001C00381070107030FFF0081E1E0B0261
:101BC000FB03060C08181818181C0C0C0C0C183009
:101BD000F81C0C0C0C0C1C18181818180C06030216
:101BE00020200703FAC0C0C0C0C0C0C0C0C0C0C071
:101BF000C0C0C0C0C0C0C0C0C0C0C0C0C0C0C0C0E5
:101C0000C0C0C0C0C0081E1E0B01FBC06030181849
:101C10001818183830303030381F0C183030303049
:101C20003818181818103060C00E060C1001071C68
:101C3000083E0C7F8847F083F080E0FFFFFFFFFF46
:101C4000FFFFFFFFFFFFFFFFFFFFFFFFFFFFFFFFA4
:101C5000FFFFFFFFFFFFFFFFFFFFFFFF0000000789
:101C600000000418180902F770F0F0E0000020608E
:101C70006060606060606060707070707070704014
:101C80000C14280F02FF0600060006000FE036E0E5
:101C900066606600C600C600C600C600C600C60074
:101CA000E62076303FC01F800600060006000D13B8
:101CB000260F010007E0087010301020302030009F
:101CC000300030003000FF003000300030003000C5
:101CD0003008201860307FF083F00B0A140F0204E4
:101CE000C0607FC031C060C060C060C071C03F8054
:101CF000404080201013260FFF00F03F381C1C18B6
:101D00001C380E300670076003C003C001800180DC
:101D10003FFC0180018001800180018001800FF083
:101D20000220200703FAC0C0C0C0C0C0C0C0C0C0ED
:101D3000C0C0C0C080000040C0C0C0C0C0C0C0C0E3
:101D4000C0C0C0C0C0C00B162C0F02001F8031C025
:101D500060806000700078003E006F80C7C0C1E006
:101D6000C0E0E060F0607C603FC00F8003C001C055
:101D700040C040C060803F000904080D021161802E
:101D8000E380E380C30015143C18010001FC000649
:101D900003001800C0300060307C60618630630052
:101DA00030C20018C60018C60018C60018C60018B1
:101DB000C7001863003061C63030F860300060182A
:101DC00000C006030001FC00070A0A08010938CC1C
:101DD0008C1C6CCCDCEE00FE0C0E1C1001000610FE
:101DE00004300860186030C071C0E380E38071C0C7
:101DF00030C018600860043006100D060C0F010397
:101E0000FFF8001800180018001800180901020B4C
:101E10000108FF800A0B160B010B1E0061007E807B
:101E2000934097409C4094409240698021001E005E
:101E30000A0102100313FFC00707070B020C3C6ED8
:101E4000C6C6C6EC780C0E1C0D0102060006000684
:101E50000006000600FFF00600060006000600046B
:101E60000000000000FFE0080B0B0A010A3E63C3FC
:101E70000306060C183261FF090C180B00091F003D
:101E800033806180018003000F00018001800180A8
:101E90000180C3003E000707070A03100C1E18301C
:101EA0003060C00F172E1101F83008F038301830AC
:101EB00018301830183018301830183018383838B2
:101EC000783FF837DE33983000300030003000388B
:101ED000003800380030000F18301201FC0FFE30BF
:101EE000FC60D840D8C0D8C0D8C0D8C0D8E0D8701E
:101EF000D838D80FD800D800D800D800D800D800DB
:101F0000D800D800D800D800D800D803FE030404B5
:101F100005010960E0E0C00507070701F93020303E
:101F2000781830E0080B0B0B020A18F8181818186C
:101F300018181818FF070A0A090109386CC6C6C61E
:101F4000C66C3800FE0C0E1C1002008200410061BD
:101F50008030C038E01C600C701C701E6038E030AF
:101F6000C06180410082001013261302003006F089
:101F70000E300C301830383030306030E030C0CDAA
:101F800082018E031E061606260C46187F18863020
:101F900006601F0F13261202003006F00C300830C6
:101FA0001830303030306030C030C0CD80011C037C
:101FB00066064604060C0C18181830306260FE11D4
:101FC00013391301003C03004606000604001C0CF4
:101FD000000618000610000630008E6000786000D1
:101FE00000C100018700018F00030B0002130006EF
:101FF00023000C3F800C4300180300300F800A18A8
:10200000300D02F70E001E001E001C000000000034
:1020100000000C000C000C000C001C00180030002C
:10202000300060006000C000C040C0C0C0C0E080A0
:1020300061803E00131B511300000600000F0000DA
:1020400007800001C00000600000100000000000D8
:10205000400000E00000E00001E00001F00001B0FD
:1020600000033000033800031800061C00061C00A3
:10207000060C000FFE000C060008060018070018EA
:102080000300100300300380FE0FE0131B51130008
:1020900000000800001E00003C0000700001C000AD
:1020A00001000000000000400000E00000E000012E
:1020B000E00001F00001B000033000033800031815
:1020C00000061C00061C00060C000FFE000C06009B
:1020D000080600180700180300100300300380FEF4
:1020E0000FE0131B5113000000E00001E00001F0BD
:1020F00000033800060C000C040000000000400043
:1021000000E00000E00001E00001F00001B0000389
:102110003000033800031800061C00061C00060CE3
:10212000000FFE000C060008060018070018030048
:10213000100300300380FE0FE0131A4E130000035B
:10214000840007E60004FC000838000000000000DE
:102150000000400000E00000E00001E00001F000AD
:1021600001B000033000033800031800061C00060D
:102170001C00060C000FFE000C06000806001807E5
:1021800000180300100300300380FE0FE013194B0A
:10219000130000060C00060C000E1C00060C0000CC
:1021A000000000400000E00000E00001E00001F05D
:1021B0000001B000033000033800031800061C00C3
:1021C000061C00060C000FFE000C06000806001896
:1021D0000700180300100300300380FE0FE0131BFC
:1021E0005113000000E00001B00001300003300096
:1021F00001B00001E00000000000400000E000002D
:10220000E00001E00001F00001B0000330000338FD
:1022100000031800061C00061C00060C000FFE0040
:102220000C06000806001807001803001003003011
:102230000380FE0FE017143C19000003FFFC007C34
:1022400004006C0400EC0400CC0001CC00018C0004
:10225000018C00038C0003FFF8070C10060C00062D
:102260000C000C0C000C0C001C0C00180C02180CC0
:1022700002300C06FC3FFE0F1B361101F903F80C6F
:102280001C10083000600060004000C000C000C0AA
:1022900000C000C000C000E0006000700078023C98
:1022A0000C1FF80FF00080008001E000E0006000EB
:1022B000C003000D1B36100100100038001C000F79
:1022C00000038000C00000FFF030103010301030EC
:1022D0000030003000300030003FE030403000304F
:1022E00000300030003000300830083018FFF80DA2
:1022F0001B36100100002000F001E0038007000CF5
:10230000000000FFF030103010301030003000308E
:1023100000300030003FE03040300030003000300E
:10232000003000300830083018FFF80D1B3610015F
:1023300000030007800FC01CC0386020300000FF81
:10234000F0301030103010300030003000300030ED
:10235000003FE030403000300030003000300030CE
:102360000830083018FFF80D193210010018303805
:1023700070387030600000FFF030103010301030D6
:102380000030003000300030003FE030403000309E
:1023900000300030003000300830083018FFF809F5
:1023A0001B360AFF006000F00078001C00070001E7
:1023B0000000001F8006000600060006000600065A
:1023C00000060006000600060006000600060006DD
:1023D0000006000600060006001F80081B1B0A02FC
:1023E00000060F1E38608000FC3030303030303056
:1023F0003030303030303030303030FC0A1B360A6C
:1024000000001C001E003E007300C18080C0000060
:102410003F000C000C000C000C000C000C000C0029
:102420000C000C000C000C000C000C000C000C004C
:102430000C000C000C003F000A19320A0000C18099
:10244000E1C0E1C0C18000003F000C000C000C00A6
:102450000C000C000C000C000C000C000C000C001C
:102460000C000C000C000C000C000C000C003F00D9
:1024700012143C1300001FF000781C00180600180E
:1024800003001801801801801801C01800C018004E
:10249000C0FF80C01800C01800C01800C01801801C
:1024A000180180180180180300180600181C007F0E
:1024B000F000131A4E15010003840007E600047CA7
:1024C00000083800000000000000F007E03801803C
:1024D0003C01803C01803E018037018033818033A4
:1024E000818031C18030E18030618030718030394D
:1024F00080301D80300D80300F80300780300380A9
:10250000300380FC0180111B511301000C00001EE0
:1025100000000F000003800000E000002000000029
:102520000003F0000C1800100C003006002003001F
:10253000600300400380C00180C00180C00180C0F2
:102540000180C00180C00180E001006003006002E2
:10255000003006003804000C180007E000111B5181
:10256000130100001800003C0000780000E00001AA
:10257000800002000000000003F0000C1800100CA6
:1025800000300600200300600300400380C001808B
:10259000C00180C00180C00180C00180C00180E016
:1025A00001006003006002003006003804000C18CF
:1025B0000007E000111B5113010001C00001E00001
:1025C00003E0000730000C1800080C0000000003B6
:1025D000F0000C1800100C0030060020030060030F
:1025E00000400380C00180C00180C00180C0018024
:1025F000C00180C00180E001006003006002003083
:1026000006003804000C180007E000111A4E1301F0
:102610000003040007CC0008F80010700000000060
:1026200000000003F0000C1800100C003006002021
:102630000300600300400380C00180C00180C0012E
:1026400080C00180C00180C00180E0010060030003
:102650006002003006003804000C180007E000118A
:10266000194B1301000C18000E1C000E1C000C1856
:102670000000000003F0000C1800100C00300600F1
:10268000200300600300400380C00180C00180C0BF
:102690000180C00180C00180C00180E001006003B2
:1026A000006002003006003804000C180007E0004B
:1026B0000B0A140D0104C06060C031801B000E00C5
:1026C0000E001B00318060C0C06011153F1301FF78
:1026D00003F180041F00180E00301E00201F006050
:1026E0003F00403B80C07380C0E180C0E180C1C139
:1026F00080C38180C30180E701006E03007C02007B
:102700007C06003804007C1800C7E000800000133D
:102710001B511501000600000F000007800001C0DA
:1027200000006000001000000000FC07E0300180A5
:1027300030018030018030018030018030018030F4
:102740000180300180300180300180300180300113
:10275000803001803001803001001803001C060029
:102760000E0C0003F000131B51150100000C0000BB
:102770001E00003C0000700000C0000100000000CE
:1027800000FC07E0300180300180300180300180A2
:102790003001803001803001803001803001803094
:1027A00001803001803001803001803001803001B3
:1027B000001803001C06000E0C0003F000131B5150
:1027C00015010000E00000F00001F0000398000691
:1027D0000C00040600000000FC07E030018030011E
:1027E00080300180300180300180300180300180F4
:1027F0003001803001803001803001803001803034
:1028000001803001803001001803001C06000E0C0E
:102810000003F00013194B150100060C00070E0011
:10282000070E00060C00000000FC07E030018030BD
:102830000180300180300180300180300180300122
:102840008030018030018030018030018030018093
:102850003001803001803001001803001C06000E9A
:102860000C0003F000121B51130000000C00001EAE
:1028700000003C0000700000C000010000000000EB
:10288000F01FC03807001C06000C0C000E0C0007DF
:10289000180007180003300003B00001E00001E059
:1028A0000000C00000C00000C00000C00000C00068
:1028B00000C00000C00000C00007F8000F1428117D
:1028C0000100FE003000300030003FE03078301C66
:1028D000300E3006300630063006300C300C3438FE
:1028E00033E0300030003000FE00101830120100DC
:1028F00001E006380818101C100C300C300C301C8D
:10290000303830F031C03180318031C030F0307C2F
:10291000303E300F30073003310331033186F1F898
:102920000D172E0F0100380038001C000E000600A5
:102930000300010000000FC030E0706060600060C4
:1029400000600FE03FE07E60F060E060C060C0606B
:1029500041E03E780D172E0F010000E000E001C0BD
:10296000018003000200040000000FC030E070602E
:102970006060006000600FE03FE07E60F060E0605B
:10298000C060C06041E03E780D172E0F01000700C7
:1029900007000F801DC018C03060202000000FC04D
:1029A00030E070606060006000600FE03FE07E60DB
:1029B000F060E060C060C06041E03E780D152A0F15
:1029C00001001C103F2023C04000000000000FC089
:1029D00030E070606060006000600FE03FE07E60AB
:1029E000F060E060C060C06041E03E780D152A0FE5
:1029F00001003060387030603060000000000FC0AF
:102A000030E070606060006000600FE03FE07E607A
:102A1000F060E060C060C06041E03E780D162C0FB1
:102A2000010007800D800CC00C800D800F0000009D
:102A30000FC030E070606060006000600FE03FE059
:102A40007E60F060E060C060C06041E03E78130FDF
:102A50002D1602001F8F0071B0C060E0C0E0E06082
:102A600080C06000C06007FFC01CC00070C0006074
:102A7000C000C0C000C0E000C16040C270E07C1F68
:102A8000000C162C0E01F907E018602020600040B1
:102A900000C000C000C000C000C000E0007010789E
:102AA000603FC01F80020002000780038001800396
:102AB000000C000D172E0F010018003C000C000642
:102AC00000030001000180000007C0186020306092
:102AD000184018C018FFF0C000C000C000E000603F
:102AE00000700838300FC00D172E0F010000600075
:102AF000F000C00180018003000600000007C0183C
:102B000060203060184018C018FFF0C000C000C03E
:102B100000E0006000700838300FC00D172E0F0164
:102B200000030007800F800CC018601020201000E8
:102B30000007C01860203060184018C018FFF0C0AF
:102B400000C000C000E0006000700838300FC00D09
:102B5000152A0F01001830387038703060000000FE
:102B60000007C01860203060184018C018FFF0C07F
:102B700000C000C000E0006000700838300FC007DF
:102B80001717090000E0E07030180C0400187818DE
:102B900018181818181818181818187E0817170970
:102BA000010007070E0C1830200030F030303030B4
:102BB0003030303030303030FC09172E0900001C26
:102BC000001C003E0077006300C180808000001878
:102BD00000780018001800180018001800180018D5
:102BE00000180018001800180018007E000A152AA6
:102BF000090000C180C180E3C0C18000000000184E
:102C000000780018001800180018001800180018A4
:102C100000180018001800180018007E000E172E6B
:102C20001001000C003E1803F003C01EE0306000ED
:102C300070003807981878203C601C400CC00CC00D
:102C40000CC00CC00CC008E0186010703038600F69
:102C50008010152A12010007080F9018E0100000DC
:102C60000000007070B188360C380C380C300C3015
:102C70000C300C300C300C300C300C300C300CFCA8
:102C80003F0E172E1001001C001C000E0006000352
:102C90000001800080000007C018702038601840D4
:102CA0001CC00CC00CC00CC00CC00CE0086018703C
:102CB0001038200FC00E172E100100007000700099
:102CC000E001C0018003000200000007C01870206E
:102CD000386018401CC00CC00CC00CC00CC00CE00C
:102CE000086018701038200FC00E172E1001000356
:102CF00080038007C00EC00C601830301000000741
:102D0000C0187020386018401CC00CC00CC00CC02B
:102D10000CC00CE0086018701038200FC00E152A87
:102D20001001000E081F9011E020000000000007B5
:102D3000C0187020386018401CC00CC00CC00CC0FB
:102D40000CC00CE0086018701038200FC00E152A57
:102D500010010018301830387018300000000007DB
:102D6000C0187020386018401CC00CC00CC00CC0CB
:102D70000CC00CE0086018701038200FC00B0A144B
:102D80000D010406000600060000000000FFE00040
:102D9000000600060006000E10201001FF07CC18E8
:102DA000782078607840FCC1DCC18CC38CC70CC62D
:102DB0000CEC087C1878107820CFC080000F172EFC
:102DC0001101001C001C000E000700030001800020
:102DD0008000003018F07830183018301830183073
:102DE0001830183018301830183018303818DE0FF6
:102DF000180F172E1101000070007000E000C001D4
:102E0000800100020000003018F0783018301830CF
:102E10001830183018301830183018301830183072
:102E20003818DE0F180F172E1101000380038007DA
:102E3000C00EE00C601830101000003018F0783030
:102E40001830183018301830183018301830183042
:102E5000183018303818DE0F180F152A1101001815
:102E6000301C3818301830000000003018F078306E
:102E70001830183018301830183018301830183012
:102E8000183018303818DE0F18101F3E10FFF800E9
:102E90001C001C00380070006000C0008000007E34
:102EA0001F1C061C040C0C0E0C0E08061807180339
:102EB00010033003B001A001E001E000C000C00039
:102EC000800180018003007E007C00F8000F20401C
:102ED0001101F81000F000300030003000300030F8
:102EE000003000300030F03318341C380C300E3015
:102EF0000630063006300630063004300C38083C08
:102F00001037E0300030003000300030003000304A
:102F100000FE00101D3A10FFF8060C0E1C0E1C06D9
:102F20000C000000007E1F1C061C040C0C0E0C0E76
:102F300008061807180310033003B001A001E001D0
:102F4000E000C000C000800180018003007E007CA2
:102F500000F80000DB2711241FBECFEFD8E0DEBF52
:102F6000CDBF26E0A6E4B2E001C01D92AB3CB207A3
:102F7000E1F712E0A0E0B1E0E0EBF2E702C005907B
:102F80000D92A634B107D9F717E1CBEAD7E104C017
:102F90002197FE010E94EA37CA3AD107C9F70E9479
:102FA000A1290C9456390C940000089580E00895EE
:102FB0002091A2033091A3032817390799F1909328
:102FC000A3038093A203009739F12091B503FC017C
:102FD000211129C03596E491E093B6030C96FC01CB
:102FE00084918093B7038091B603082E000C990B4F
:102FF0002091B703821B910927FD93952091B80377
:10300000203441F0829FC001112426E096958795D7
:103010002A95E1F78093B90386ED97E19093B40385
:103020008093B3030895213031F43F96E491E09307
:10303000B6034096D4CF3D96E491E093B6030E9646
:10304000CECFFC01A089B18982E08C93A485B5859F
:103050001C92A685B7858FEC8C93108EA489B589B8
:1030600086E08C93A289B3898C9180618C93A2892C
:10307000B3898C9188608C93A289B3898C91806884
:103080008C930288F389E02D80818F7D8083089561
:1030900090E0FC01EF5DFE4F2491835F9E4FFC01A9
:1030A0008491882399F090E0880F991FFC01ED5FCF
:1030B000FE4FA591B491FC01E750FF4F859194918B
:1030C0008FB7F894EC91E22BEC938FBF0895FC013D
:1030D00080818C3239F08A3229F081E0EF2B19F0AF
:1030E00080E0089581E00895CF93DF93EC010E9482
:1030F000671881111FC098819134B9F481E08093E1
:10310000EC048091330590913405A0913505B09180
:1031100036058093230590932405A0932505B0934D
:10312000260581E0DF91CF9108959635D9F7109269
:10313000EC04F7CF80E0F6CF90E0FC01EB51FF4FBD
:103140002491FC01EF5DFE4F3491FC01E35FFE4FE3
:10315000E491EE23C9F0222339F0233001F1A8F4E1
:10316000213019F1223029F1F0E0EE0FFF1FE75076
:10317000FF4FA591B4918FB7F894EC91611126C0DF
:1031800030953E233C938FBF08952730A9F0283017
:10319000C9F0243049F7809180008F7D03C0809171
:1031A00080008F7780938000DFCF84B58F7784BDD8
:1031B000DBCF84B58F7DFBCF8091B0008F7780937C
:1031C000B000D2CF8091B0008F7DF9CF3E2BDACF07
:1031D0003FB7F8948091400390914103A09142033E
:1031E000B091430326B5A89B05C02F3F19F0019667
:1031F000A11DB11D3FBFBA2FA92F982F8827BC0151
:10320000CD01620F711D811D911D42E0660F771F78
:10321000881F991F4A95D1F708958F929F92AF9278
:10322000BF92CF92DF92EF92FF924B015C010E941E
:10323000E8186B017C010E94E8186C197D098E0961
:103240009F09683E734081059105A8F321E0821A29
:103250009108A108B10888EEC80E83E0D81EE11CD1
:10326000F11C81149104A104B10429F7FF90EF909F
:10327000DF90CF90BF90AF909F908F9008952FB721
:10328000F89460913C0370913D0380913E039091CE
:103290003F032FBF089508950895AF92BF92CF9234
:1032A000DF92EF92FF920F931F93CF93DF936C0106
:1032B0007B018B01040F151FEB015E01AE18BF08E7
:1032C000C017D10759F06991D601ED91FC91019099
:1032D000F081E02DC6010995892B79F7C501DF91B1
:1032E000CF911F910F91FF90EF90DF90CF90BF9003
:1032F000AF900895FC01538D448D252F30E0842F2D
:1033000090E0821B930B541710F0CF96089501970D
:103310000895FC01918D828D981761F0A28DAE0FFA
:10332000BF2FB11D5D968C91928D9F5F9F73928F81
:1033300090E008958FEF9FEF0895FC01918D828DAD
:10334000981731F0828DE80FF11D858D90E008957A
:103350008FEF9FEF0895FC01918D228D892F90E0D2
:10336000805C9F4F821B91098F739927089588ED88
:1033700093E00E94AB1921E0892B09F420E0822F11
:10338000089580E090E0892B29F00E94B7198111FF
:103390000C9400000895FC01A48DA80FB92FB11D55
:1033A000A35ABF4F2C91848D90E001968F7399277B
:1033B000848FA689B7892C93A089B1898C91837059
:1033C00080648C93938D848D981306C00288F38952
:1033D000E02D80818F7D80830895EF92FF920F937F
:1033E0001F93CF93DF93EC0181E0888F9B8D8C8DB1
:1033F00098131AC0E889F989808185FF15C09FB7A5
:10340000F894EE89FF896083E889F9898081837067
:10341000806480839FBF81E090E0DF91CF911F9116
:103420000F91FF90EF900895F62E0B8D10E00F5F37
:103430001F4F0F731127E02E8C8D8E110CC00FB60D
:1034400007FCFACFE889F989808185FFF5CFCE01A5
:103450000E94CB19F1CFEB8DEC0FFD2FF11DE35A3C
:10346000FF4FF0829FB7F8940B8FEA89FB89808128
:103470008062CFCFCF93DF93EC01888D8823B9F0A2
:10348000AA89BB89E889F9898C9185FD03C080816F
:1034900086FD0DC00FB607FCF7CF8C9185FFF2CFEC
:1034A000808185FFEDCFCE010E94CB19E9CFDF915E
:1034B000CF910895DC011696ED91FC911797129625
:1034C0008C91481B477081E090E001C0880F4A95BD
:1034D000EAF7E60FF11D3081222319F0832B808358
:1034E000089580958323FBCFFB014181DC01129677
:1034F0002C911297421768F013962C91139724176A
:1035000040F0608115962C91621718F424810C9478
:103510005A1A0895FC0180819281980F928321812B
:10352000921760F494819F5F94839381890F82172F
:1035300010F08FEF820F838381E0089580E008957B
:10354000FC01128280818150838314820895DB0103
:10355000ED91FC9109940F931F93CF93DF931F92EA
:10356000CDB7DEB70091A0031091A103E091CF0386
:10357000F091D00382E0099530E020E04AE0B80104
:103580008EE993E00E94A71A182FE091CF03F091E3
:10359000D00383E00995E091CF03F091D00380E060
:1035A00009951123B9F16091A0037091A1039E01C7
:1035B0002F5F3F4F46E48EE993E00E94A71A89816E
:1035C00080939E036091A0037091A1039E012F5FE1
:1035D0003F4F47E48EE993E00E94A71A89818093C8
:1035E0009F036091A0037091A10330E020E048E4C4
:1035F0008EE993E00E94A71A8093A9036091A0032B
:103600007091A10321ED33E047E18EE993E00E9440
:10361000A71A11E0812F0F90DF91CF911F910F9189
:1036200008950F931F93CF93DF938C01CAE9D3E0E2
:10363000EDA9FEA982E00995EDA9FEA981E0099511
:1036400030E020E044E1B8018EE993E00E94A71A3F
:1036500021ED33E047E1B8018EE993E00E94A71A1B
:10366000EDA9FEA980E0DF91CF911F910F91099400
:103670000F931F93CF93E091AC03F091AD0330977C
:1036800019F08EE993E009950091A0031091A10330
:10369000E091CF03F091D00382E00995E091CF0350
:1036A000F091D00381E0099530E020E045E1B801D8
:1036B0008EE993E00E94A71AC82F882341F021EDDC
:1036C00033E047E1B8018EE993E00E94A71AE09148
:1036D000CF03F091D00380E009958C2FCF911F91FB
:1036E0000F9108950B96FC01849108950A96FC01B0
:1036F00084910895FC01849108950E947A1B882387
:1037000021F0823011F083E0089586E00895FC01F5
:10371000E60FF11D849190E0982F88273196E4916F
:103720008E0F911D089568E00C94871B66E00C9441
:10373000871B5F926F927F928F929F92AF92BF9200
:10374000CF92DF92EF92FF920F931F93CF93DF936D
:10375000EC01E62EF42EC22E0C811D81C8010E94C0
:103760007A1BD82E8C819D810E947D1B982E21E092
:10377000AA24AA94D21202C02FE0A22E8C819D818D
:103780000E94761BD82E8C819D810E94721BB82EC0
:103790008C819D810E94931BE0E6EC1578F40097E4
:1037A00069F0080F191F91E6D92EBC14C0F4188ACD
:1037B0001B8A1C8A198A1A8A80E0A0C08C819D818C
:1037C0000E94961BF0E4FC1538F4009729F0080FCE
:1037D000191F81E4D82EE9CF0F5E1F4FE6CFBD142D
:1037E00030F3892D90E0F80124912F3F31F40F5FE1
:1037F0001F4FBD14E1F2D394F6CFCD1072C08C816F
:103800009D810E947A1B98012F5F3F4FF80188230A
:1038100019F0823009F04EC084918B8BF90124910C
:103820002C8BF8013396E491E88BF8013496E491FF
:10383000E98BF8013596E491EA8B0115110509F43D
:10384000BBCF8C819D810E947D1B3C89F31A9A8994
:10385000F91A9FEF930F9F0D2CA94EA94F1508F44D
:1038600049C0921718F49F1508F047C02B89998911
:10387000E90E9FEF920F9E0D4BA95DA95E1508F40E
:103880004DC0941718F49E1508F037C0080F111D8D
:10389000295F722E7694769476946F2C630E5E0177
:1038A000FCE1AF0EB11C872C912CF61431F15E2C8B
:1038B00068014AC08491982F9F7092509A8B82958C
:1038C0008F70898BF9012491822F8F708C8B2295B8
:1038D0002F702B8BF8013296E491E295EF70E88B14
:1038E000ACCF3296E491EA21E80FF92FF11D0E0FCB
:1038F0001F1F7FCF921708F0B6CF8889DF91CF9135
:103900001F910F91FF90EF90DF90CF90BF90AF90FD
:103910009F908F907F906F905F900895941708F01C
:10392000B2CFEBCFF60184916A817B815C8EFD8EF4
:103930001F8E8E8F95014BE3CE010E94A71AFFEFD9
:10394000CF1ADF0A28E0520E8C2D801B871550F30A
:10395000080D191DF394A9CFEF92FF920F931F93B7
:10396000CF93DF93F82E062FE42E152FE091B303AB
:10397000F091B4038EE993E00995080FCE2DD12F75
:1039800010E02991211108C0812FDF91CF911F9163
:103990000F91FF90EF900895402F6F2D8EE993E0E7
:1039A0000E94991BF80E180FECCF2EE93FE000970C
:1039B00009F40895F9013197F1F70197F8CFCF9302
:1039C000DF9300D0CDB7DEB720ED37E03A8329830F
:1039D0009091BC00982311F081E00FC029813A81B9
:1039E000232B81F48091450381FDF6CF8091440320
:1039F00081110DC091E0909344030F900F90DF91DF
:103A0000CF91089529813A8121503109DFCF80E09B
:103A1000F4CF84EA8093BC0061E080E80E94DF1C60
:103A2000811102C080E008958091B900887F8830BC
:103A300051F0803141F0809144038111F3CF82E055
:103A400080934403EFCF88E78093BB0084E88093A2
:103A5000BC0062E080E80E94DF1C882319F380919B
:103A6000450381FD05C08091B900887F883119F731
:103A700081E0089584E98093BC0064E080E10C94C7
:103A8000DF1C8093BB0084E88093BC0063E080E887
:103A90000E94DF1C8823A1F08091450381FD0DC0A9
:103AA0008091B900887F883241F080914403811170
:103AB00006C092E090934403089581E0089580E069
:103AC0000895109244030895809345031092B9001D
:103AD00084FF05C08CE08093B8000C94611D88E4DD
:103AE000FACFCF93DF93FC0123A5222389F0EC01C9
:103AF0000E94091D811104C080E0DF91CF910895DB
:103B00008EA1811107C00E94411D8823A9F31BA625
:103B100081E0F3CF80E4F7CF0F931F93CF93DF9330
:103B2000C62FD42F8901633001F138F4613099F048
:103B3000623009F449C0C1E012C0663029F1673033
:103B400091F16530C1F70E94711D811117C00E946B
:103B50003A1DC0E004C0FC0186A50E94641D8C2FA4
:103B6000DF91CF911F910F910895FC0116A221E0E2
:103B700023A74111E0CF0E943A1DDDCF8D2F0E9477
:103B8000411D8111D8CFE3CF0E94711D8823F9F226
:103B9000DD2389F2F80181918F010E94411D882364
:103BA000B1F2D150F5CF0E94711D882381F2DD233F
:103BB00011F2F80184910E94411DC82F882379F2E7
:103BC0000F5F1F4FD150F3CFFC0146A321E023A785
:103BD000B2CFDB011496ED91FC9130E020E065E07E
:103BE0000994DB011496ED91FC9130E020E062E055
:103BF0000994DB011496ED91FC9130E020E063E044
:103C00000994CF92DF92EF92FF920F931F93CF937D
:103C1000DF938C017B016A0180E0F601C491811180
:103C200010C081E0CF3F49F04C2FB701C8010E947E
:103C3000E91D882309F444C080E0BFEFCB1ADB0AFA
:103C4000ECCF4FEFCF3F89F3CE3FD9F1C03FA0F784
:103C5000C03E38F04C2F4F70B701C8010E94F11DD3
:103C6000EBCFC03D38F04C2F4F70B701C8010E9418
:103C7000F91DE2CFC03CF8F0D7011496ED91FC910C
:103C800030E020E040E064E0C8010995C295C07FC3
:103C9000CE5FD0E0CE010E94D51CD7011496ED91E5
:103CA000FC9130E020E041E064E0C8010995CE01DC
:103CB0000E94D51CC1CFC7FDBFCF8C2F90E0F8CF9D
:103CC00080E0DF91CF911F910F91FF90EF90DF90F7
:103CD000CF900895AF92BF92CF92DF92FF920F9351
:103CE0001F93CF93DF936C018B01F42EE90180E1E8
:103CF000481709F47EC0841778F1AAE04A1709F43E
:103D000061C0BFE04B1709F47FC0F8010281138145
:103D1000F2E3FF1609F4DDC0FF1508F48EC085E15B
:103D2000F81609F4DBC0A7E1FA1609F4ECC0B4E117
:103D3000FB1265C0D8011696ED91FC911797159668
:103D40008C918E0F9F2F911D11928E179F07E1F777
:103D5000C8010E94A01A53C0E1E14E1709F451C0F6
:103D6000F5E14F13D2CFFB01A280B38047EB50E0C7
:103D7000C6010E94011ED50114964C91406BB801FA
:103D8000C6010E94E91D41E0B801C6010E94F11D73
:103D9000F50126813781D8011496ED91FC91D5016A
:103DA00015964C9166E0C601099581111CC080E012
:103DB000DF91CF911F910F91FF90DF90CF90BF9037
:103DC000AF900895DB011496ED91FC9130E020E076
:103DD00042E061E0C60109954FEB50E0B801C60131
:103DE0000E94011E92CF40E0B801C6010E94F91D59
:103DF0008CCF4EEA50E0B801C6010E94011E81E05E
:103E0000D7CF43EA50E0F7CF41E0C6010E94F91D49
:103E100040E0B801C6010E94F11D41E8B801C601A9
:103E20000E94E91D4881B801C6010E94E91D40E0D9
:103E3000B801C6010E94F91DE2CFE6E4FE1609F4BE
:103E40006CC0F7E4FF1609F46DC08BE3F812D7CF0E
:103E500099818B8138E0390F813031F0833011F056
:103E6000392F02C0392F985021E0D80113964C9178
:103E7000491708F420E041E0391708F040E091E0EC
:103E8000F8015281351708F490E0322F342B932338
:103E900019F4242309F4B3CFFA80D12CC12C843037
:103EA00048F490E0FC01E65CFE4FC0808A5C9E4FC7
:103EB000DC01DC90F7FE04C0BE01C8010E94741A48
:103EC00088818C0D888389818D0D8983FF0C91F702
:103ED00096CFBE01C8010E94741A91CFC8010E94FA
:103EE0008A1A882309F463CFD8011696ED91FC91C4
:103EF000179715968C918E0F9F2F911D11928E17EB
:103F00009F07E1F77CCF1882F80182818983858140
:103F100081508A8383818B8372CFD80115968C91CF
:103F200088836DCFF8018181FBCF2091E702260FB6
:103F30003327331F21323105ECF420916C03FC014F
:103F400090E080E0243069F082E00895A091E702DB
:103F50002191AC0149535D4FA40FB52FB11D2C9396
:103F60000196861798F38091E702680F6093E70245
:103F700080E0089581E0089510926C0381E08093C1
:103F80006B031092460361E082E10E949C1861E09D
:103F900083E10E949C18E9EBF0E080818E7F8083B2
:103FA00080818D7F808388E48093B80085E480934E
:103FB000BC000895CF93DF9391E09093C6028823CD
:103FC000B9F0C091B800D091BA008091BC008A7B52
:103FD0008093BC0060E082E10E949C1860E083E175
:103FE0000E949C180E94BC1FD093BA00C093B800D6
:103FF000DF91CF9108958F929F92AF92BF92CF920F
:10400000DF92EF92FF920F931F93CF93DF93D091A4
:104010009503D13208F0D7C0182FC09194030E94A5
:10402000E8186B017C0180916C0381116BC082E008
:1040300080936C0310936B038FEF80936A0310924D
:104040006903D0936803A4E7B3E0E8E4F3E080E019
:10405000D81391C01092470380914703CC0FC82B0F
:10406000C093470380914603813009F088C01092C5
:1040700046030E94E8186B017C01809147038093FE
:10408000BB0080916E0390916F03A0917003B0917B
:104090007103892B8A2B8B2BA1F00E94E8180091C9
:1040A0006E0310916F0320917003309171036C19AE
:1040B0007D098E099F09061717072807390708F495
:1040C00042C08091BC0083FDD8CF85EC8093BC00BA
:1040D0000E94E8186B017C0180916C03823009F426
:1040E00050C080916A038F3F09F46FC080916A03CA
:1040F000803209F46CC080916A03803309F469C08E
:1041000084E026C080916E0390916F03A0917003AC
:10411000B0917103892B8A2B8B2B09F484CF0E94D9
:10412000E81880906E0390906F03A0907003B09099
:1041300071036C197D098E099F0986169706A806DA
:10414000B90608F070CF80916D030E94DA1F85E0F8
:10415000109273031092950310927203DF91CF9126
:104160001F910F91FF90EF90DF90CF90BF90AF9095
:104170009F908F9008959D9191938F5F69CF85EE69
:10418000A5CF80916E0390916F03A0917003B091C1
:104190007103892B8A2B8B2B09F49ECF0E94E81880
:1041A00000916E0310916F032091700330917103A1
:1041B0006C197D098E099F0906171707280739070B
:1041C00008F08ACFC0CF81E0C3CF80E0C1CF82E0CA
:1041D000BFCF83E0BDCF0895E09114038091130316
:1041E000E81730F4F0E0EB5EFC4F808190E008953A
:1041F0008FEF9FEF089590911403809113032FEF99
:104200003FEF981748F4E92FF0E0EB5EFC4F208178
:1042100030E09F5F90931403C901089580911303C8
:1042200090911403891B990B0895CF92DF92EF921E
:10423000FF920F931F93CF93DF937C01CB018A01F1
:1042400020917203222389F0EB016B01C40ED51E6D
:10425000CC15DD0569F06991D701ED91FC910190D4
:10426000F081E02DC7010995F3CF642F0E94951FBF
:10427000C801DF91CF911F910F91FF90EF90DF90D8
:10428000CF900895CF93DF931F92CDB7DEB76983A8
:10429000209172032223F9F020919503203258F0E7
:1042A00021E030E0FC013383228390E080E00F9036
:1042B000DF91CF91089580917303E82FF0E0EC58DF
:1042C000FC4F998190838F5F809373038093950354
:1042D00081E090E0ECCF61E0CE0101960E94951F55
:1042E000F7CF089508958CBD9DBD08951F93CF937A
:1042F000DF93EC01FC01ED53FF4F8081918100972A
:1043000051F0DC01ED91FC910190F081E02DDF9105
:10431000CF911F910994FE01EA53FF4F8081918153
:10432000009779F7FE01E853FF4F80819181009754
:1043300041F7162FFE01E653FF4F808191810097D0
:1043400069F4FE01E453FF4F80819181892B21F5AF
:1043500090E080E0DF91CF911F910895FE01EB5C2A
:10436000FE4F208131E0309372032093940310922A
:10437000730310929503DC01ED91FC910190F081A3
:10438000E02D0995019721F781E00E94FB1F811123
:10439000D8CF81E090E0DECFFE01E153FF4F808176
:1043A00091810E947321C253DF4F888187FD03C032
:1043B00060E00E949C181EBD00000DB407FEFDCFFA
:1043C0008EB5888187FDE5CF61E00E949C18E1CF22
:1043D000DF92EF92FF920F931F93CF93DF93EC0145
:1043E000D62E1CAD0BAD7C0184E0E80EF11CE98DEE
:1043F000FA8DC7010995412F480F2D2D602FC70158
:104400000E94991B9BAD890F8BAF81E090E0DF91FB
:10441000CF911F910F91FF90EF90DF900895682F3B
:104420008AE993E00C94E821089590E080E00895F3
:104430008F929F92AF92BF92CF92DF92EF92FF92B4
:104440000F931F93CF93DF93EC010E9467188111A4
:1044500071C0CE010E9445334B015C0120E137E27F
:1044600040E050E00E94A1372093A90424E6C22E28
:10447000D12CE12CF12CA70196010E94A1372093A9
:10448000AA04C501B401A70196010E94A137609357
:10449000AB046EE270E0CE010E941E398C016CE22A
:1044A00070E0CE010E941E397C016AE270E0CE010C
:1044B0000E941E3901151105C1F197018E159F0546
:1044C00008F49C012115310581F10217130768F5E5
:1044D000C8010E94233320E030E04AE754E40E9400
:1044E00060350E9458377093AD046093AC0480919E
:1044F000330590913405A0913505B0913605809330
:10450000270590932805A0932905B0932A0581E0FB
:10451000DF91CF911F910F91FF90EF90DF90CF909F
:10452000BF90AF909F908F9008951092AD0410921D
:10453000AC04DDCF80E0ECCF2F923F924F925F92A0
:104540006F927F928F929F92AF92BF92CF92DF92A3
:10455000EF92FF920F931F93CF93DF93CDB7DEB708
:1045600068970FB6F894DEBF0FBECDBF6C017C8B91
:104570006B8B5E8B4D8B388F2F8B18010E946718C9
:10458000182F811138C19E012F5F3F4F59018AE0DA
:10459000F90111928A95E9F76EE270E0C6010E9476
:1045A0001E397C01009709F494C0AC014C195D09D7
:1045B000473051050CF08DC0B601C5010E94473946
:1045C000C5010E9445334B015C01C7010E942333A2
:1045D0006F87788B898B9A8B6CE270E0C7010E94A1
:1045E0001E397C0101960E946718811172C0C501B5
:1045F000B40124E630E040E050E00E94C3372901D6
:104600003A01ACE9BFEF0E94E5379B01AC01280DF0
:10461000391D4A1D5B1D2B873C874D875E87F7013F
:10462000018160E876E988E990E00E9491372CE307
:1046300030E040E050E00E94C33769017A01A301F5
:10464000920160E876E988E990E00E9491376C0D6C
:104650007D1D8E1D9F1D0E9401356B017C0120E890
:1046600036E948E15BE46F85788989899A890E94F7
:10467000603520E030E040E752E40E94DF369B01E5
:10468000AC01C701B6010E9473360E9451374B013D
:104690005C010E94013520E836E948E15BE40E94B4
:1046A000DF366B017C01802F8B7F833509F0A5C03D
:1046B000B094A09490948094811C911CA11CB11C76
:1046C000F7FAF094F7F8F0940335E9F0073509F4B8
:1046D0007DC0812F68960FB6F894DEBF0FBECDBFA8
:1046E000DF91CF911F910F91FF90EF90DF90CF90CE
:1046F000BF90AF909F908F907F906F905F904F9002
:104700003F902F90089520E030E0A901C701B60145
:104710000E94873718160CF04FC020E030E044EBC1
:1047200052E4C701B6010E948737181694F220E0C0
:1047300030E044E353E4C701B6010E9487371816FE
:1047400044F22D893E89232BE1F0A4E6B0E0A301D9
:1047500092010E9421362B853C854D855E85620F36
:10476000731F841F951F0E9401352F853889498941
:104770005A890E947336ED89FE8960837183828332
:1047800093832F89388D2115310529F0F901808215
:104790009182A282B3822B893C892115310529F0AF
:1047A000F901C082D182E282F3822114310411F036
:1047B000F101008311E08DCF20E030E044EB52ECBA
:1047C000C701B6010E94FA3487FD83CF20E030E0B4
:1047D000A901C701B6010E94873718160CF4A7CFAC
:1047E00020E030E044E353ECC701B6010E94FA3404
:1047F00087FD6FCFA6CF10E06CCF0E3409F483CFC6
:10480000053409F066CFE2CFCF92DF92EF92FF92AC
:104810000F931F93CF93DF937C018B016B018EE28B
:10482000C81A88EFD80AF801C191D1918F0142E0EE
:1048300050E068E871E0CE010E943939892BD9F047
:104840000C151D05C1F0FE0101900020E9F731971C
:10485000AF014C1B5D0BB701CE010E943939892B8A
:1048600011F7CE01DF91CF911F910F91FF90EF9043
:10487000DF90CF900895D0E0C0E0F3CFFB0101902E
:104880000020E9F73197AF01461B570BDC01ED9192
:10489000FC910280F381E02D09948F929F92AF9258
:1048A000BF920F931F93CF93DF93CDB7DEB7A1973E
:1048B0000FB6F894DEBF0FBECDBF19A2423008F488
:1048C0004AE08E010F5D1F4F842E912CB12CA12C3C
:1048D000A50194010E94A137E62FB901CA01EA306F
:1048E00004F5E05DD801EE938D01232B242B252BBD
:1048F00079F790E080E0109729F0BD018AE993E014
:104900000E943E24A1960FB6F894DEBF0FBECDBF25
:10491000DF91CF911F910F91BF90AF909F908F909B
:104920000895E95CDFCF4F925F926F927F928F92F2
:104930009F92AF92BF92CF92DF92EF92FF920F932E
:104940001F93CF936B017C01742EAC019B010E94DD
:104950008C376CE671E0811126C046015701E8945E
:10496000B7F82FEF3FEF4FE75FE7C501B4010E94B3
:104970008C3781110CC02FEF3FEF4FE75FE7C50188
:10498000B4010E94FA3460E771E0181664F02FEF6A
:104990003FEF4FE75FE4C701B6010E948737181663
:1049A000ACF464E771E08AE993E0CF911F910F9135
:1049B000FF90EF90DF90CF90BF90AF909F908F903F
:1049C0007F906F905F904F900C943E242FEF3FEFBD
:1049D0004FE75FECC701B6010E94FA3487FDE1CFD3
:1049E00020E030E0A901C701B6010E94FA3410E0CE
:1049F00000E087FF08C08DE20E940F228C01F7FAC9
:104A0000F094F7F8F094C0E060E070E080E09FE39D
:104A10007C1641F020E030E040E251E40E94DF36B5
:104A2000CF5FF6CFA70196010E9473362B013C01A0
:104A30000E9458374B015C014AE00E944D247C01E2
:104A4000E00EF11ECC23B1F1C501B4010E94FF3488
:104A50009B01AC01C301B2010E9472364B015C01A3
:104A60008EE20E940F22E80EF91EC15018F120E0DC
:104A700030E040E251E4C501B4010E9460352B01F1
:104A80003C010E9458374B01B12CA12C4AE0C501D2
:104A9000B4010E944D24E80EF91EC501B4010E9424
:104AA000FF349B01AC01C301B2010E9472364B017D
:104AB0005C01DBCFC701CF911F910F91FF90EF9069
:104AC000DF90CF90BF90AF909F908F907F906F902E
:104AD0005F904F900895CF93C82F8A3030F46EEFD7
:104AE00071E08AE993E00E943E246C2F70E090E030
:104AF00080E04AE0CF910C944D2485ED8093BC007A
:104B000080916E0390916F03A0917003B091710337
:104B10000796A11DB11D23E0B695A795979587959A
:104B20002A95D1F72091BC0024FD03C010926C039C
:104B3000089540916E0350916F03609170037091DE
:104B40007103452B462B472B69F30097A105B1054F
:104B500041F02AE22A95F1F700C00197A109B109B5
:104B6000E1CF80916D030C94DA1F0C948C381F9266
:104B70000F920FB60F9211242F933F938F939F9311
:104B8000AF93BF9380913C0390913D03A0913E036E
:104B9000B0913F0330913B0323E0230F2D3758F5AD
:104BA0000196A11DB11D20933B0380933C0390937C
:104BB0003D03A0933E03B0933F0380914003909147
:104BC0004103A0914203B09143030196A11DB11D81
:104BD0008093400390934103A0934203B093430317
:104BE000BF91AF919F918F913F912F910F900FBEE9
:104BF0000F901F90189526E8230F0296A11DB11D56
:104C0000D2CF1F920F920FB60F9211242F933F9382
:104C10004F935F936F937F938F939F93AF93BF93C4
:104C2000EF93FF9388ED93E00E94CB19FF91EF91F2
:104C3000BF91AF919F918F917F916F915F914F91B4
:104C40003F912F910F900FBE0F901F9018951F92BC
:104C50000F920FB60F9211242F938F939F93EF9380
:104C6000FF93E091E803F091E9038081E091EE0386
:104C7000F091EF0382FD1BC090818091F1038F5F63
:104C80008F732091F203821741F0E091F103F0E07D
:104C9000E852FC4F958F8093F103FF91EF919F9124
:104CA0008F912F910F900FBE0F901F9018958081BC
:104CB000F4CF1F920F920FB60F9211242F933F93B0
:104CC0004F935F936F937F938F939F93AF93BF9314
:104CD000EF93FF938091B900887F803609F44AC032
:104CE000F0F5883209F4A7C018F5803109F49BC0AB
:104CF000B8F4882309F4F9C0883009F494C0FF910E
:104D0000EF91BF91AF919F918F917F916F915F9143
:104D10004F913F912F910F900FBE0F901F901895BC
:104D2000883109F488C0803251F780936A0314C037
:104D3000803409F49DC040F48033B9F38833F9F628
:104D400080936A0385ECB0C0803509F485C088354E
:104D500009F496C0883499F60E947D25D0CF883911
:104D600009F48CC038F5883729F050F4883611F0F2
:104D7000803729F683E080936C031092090357C0B3
:104D8000883809F47BC0803919F0803809F0B7CF32
:104D900080910903803208F071C0E091090381E03D
:104DA0008E0F809309038091BB00F0E0E751FD4F27
:104DB00080833DC0803B39F0E0F4803A09F479C04B
:104DC000883A09F09CCF84E080936C031092E8024B
:104DD0001092E702E0910D03F0910E030995809186
:104DE000E70281110FC081E08093E7021092C702B1
:104DF00009C0803C09F4A6CF883C09F4A3CF883BC6
:104E000009F07DCFE091E80281E08E0F8093E80207
:104E1000F0E0E953FD4F80818093BB009091E80260
:104E20008091E70229C0809147038093BB0085EC05
:104E30008093BC0064CF90916903809168039817B8
:104E400058F5E091690381E08E0F80936903F0E0EB
:104E5000E85BFC4F8081E9CFE091690381E08E0F30
:104E6000809369038091BB00F0E0E85BFC4F808396
:104E700090916903809168039817C8F285E8D8CFAC
:104E8000E091690381E08E0F809369038091BB00FC
:104E9000F0E0E85BFC4F808380916B0381115CCF75
:104EA00081E08093460384EA8093BC0010926C03F7
:104EB00026CF85EC8093BC0010926C03809109038F
:104EC000803230F4E0910903F0E0E751FD4F1082A9
:104ED0006091090370E0E0910B03F0910C0389EEFF
:104EE00092E00995109209030ACF10926A0334CF19
:104EF0001F920F920FB60F9211242F933F938F930F
:104F00009F93AF93BF93CF93DF93EF93FF93E09182
:104F10001103F0911203309749F0A685B785958566
:104F2000868D81FF12C08C91892391F4FF91EF91BE
:104F3000DF91CF91BF91AF919F918F913F912F9131
:104F40000F900FBE0F901F9018958C91892371F7C9
:104F5000A389B4899C918589809589238C938689BE
:104F600097890197F1F7208D318DC685D78588E027
:104F7000D9011197F1F798818150D1F780911003F1
:104F800090E001968F73992720910F03281779F0ED
:104F90009091100380931003828D938D0197F1F708
:104FA000A389B4898C919589892B8C93BFCF868DE9
:104FB0008160868FF1CF1092DB031092DA0388EEC6
:104FC00093E0A0E0B0E08093DC039093DD03A09336
:104FD000DE03B093DF0382E491E09093D9038093E2
:104FE000D80385EC90E09093E5038093E40384EC90
:104FF00090E09093E7038093E60380EC90E0909339
:10500000E9038093E80381EC90E09093EB038093B5
:10501000EA0382EC90E09093ED038093EC0386EC3E
:1050200090E09093EF038093EE031092F1031092BF
:10503000F2031092F3031092F4031092780410928A
:10504000770480E691E09093760480937504109243
:105050007A041092790410927B0410927C041092CE
:105060007D0484E1EEE7F4E0DF01982F1D929A952C
:10507000E9F7109292041092930410929404E5E9D7
:10508000F4E0DF011D928A95E9F78EE0E4E1F1E0BA
:10509000ADEFB4E001900D928A95E1F78CE0E2E289
:1050A000F1E0ABE0B5E001900D928A95E1F788E080
:1050B000EEE2F1E0A7E1B5E001900D928A95E1F70B
:1050C00080E094E9A5E3B7E780931F05909320055E
:1050D000A0932105B0932205809323059093240586
:1050E000A0932505B0932605809327059093280566
:1050F000A0932905B0932A0580932B0590932C0546
:10510000A0932D05B0932E0580932F059093300525
:10511000A0933105B0933205809333059093340505
:10512000A0933505B093360510923A058FEF809322
:10513000430591E590934405109245058093CB0576
:105140001092CC051092CD051092BE061092390532
:105150001092380510923E0510923D0510924005C0
:1051600010923F0510924205109241051092C3061D
:10517000109237051092BE068EEC95E09093C00613
:105180008093BF0686E496E09093C2068093C106A2
:105190001092F0041092EF041092EE041092ED04BD
:1051A0001092B0041092AF041092AE041092AB04AF
:1051B0001092AA041092A9041092EB041092EA042F
:1051C0001092E9041092EC041092AD041092AC0419
:1051D0001092E5041092E6041092E7041092E8049D
:1051E0001092E1041092E2041092E3041092E4049D
:1051F0001092DD041092DE041092DF041092E0049D
:105200001092D9041092DA041092DB041092DC049C
:105210001092D5041092D6041092D7041092D8049C
:105220001092D1041092D2041092D3041092D4049C
:105230001092CD041092CE041092CF041092D0049C
:105240001092C9041092CA041092CB041092CC049C
:105250001092B5041092B6041092B7041092B804DC
:105260001092B1041092B2041092B3041092B404DC
:1052700088ED93E090933C0580933B0510929D034D
:1052800010929C0384E591E090939B0380939A0392
:105290001092D5031092D6031092D7031092A30355
:1052A0001092A2031092A5031092A4031092A703D8
:1052B00081E08093A60382E28093A8031092AD035D
:1052C0001092AC03E1ECF3E08FEC93E02FEF21932D
:1052D0008E179F07E1F781E08093BE0326ED37E14B
:1052E0003093B4032093B3038093B5031092B603B5
:1052F0001092B70380E48093B8031092B90385ED50
:1053000097E19093D0038093CF0388E091E090934E
:10531000A1038093A00382E08093CC030E94AB1A88
:1053200084E591E090939B0380939A030E943F1938
:1053300060939603709397038093980390939903D7
:105340000895CF93DF93CDB7DEB7AE970FB6F8943D
:10535000DEBF0FBECDBF789484B5826084BD84B5B6
:10536000816084BD85B5826085BD85B5816085BD60
:1053700080916E00816080936E0010928100809118
:1053800081008260809381008091810081608093A0
:105390008100809180008160809380008091B100C5
:1053A00084608093B1008091B00081608093B000F0
:1053B00080917A00846080937A0080917A00826084
:1053C00080937A0080917A00816080937A00809146
:1053D0007A00806880937A001092C10088ED93E093
:1053E0000E942118E0913805F0913905309709F4B1
:1053F00077C0138E128E118E108E178A168A8DE941
:1054000091E0958F848F8485863108F03DC02DEB27
:1054100030E0378B268B2BE931E0318F208F2CE267
:1054200031E0338F228F90916800883008F4DFC11B
:1054300021E08E3008F420E081E001C0880F2A9539
:10544000EAF7892B8093680094852DE630E0983048
:1054500050F02BE630E09E3030F02CE630E0963114
:1054600010F030E020E0348B238B292F30E098308F
:1054700008F0BFC181E001C0880F9A95EAF7858BDB
:10548000848D958D0197F1F7828D938D892B41F154
:105490004091110350911203E417F50709F14115EA
:1054A000510569F0DA0153962D913C91D9019C91F7
:1054B000DA0155968C9180958923D9018C93868D3C
:1054C0008E7F868F1092100310920F03F0931203B9
:1054D000E0931103A389B4898C919589892B8C93CE
:1054E00080913B0590913C05009711F00E94211896
:1054F00080913F0590914005892B09F487C1109256
:1055000014031092130310927303109295030E94D8
:10551000BC1F8BE499E190930E0380930D038CE400
:1055200099E190930C0380930B0380E18093AA058B
:1055300091E0909372038093940381E00E94FB1F9B
:105540006BEA71E085E794E00E943E246DED71E026
:1055500085E794E00E943E248091D703811105C025
:1055600081E08093D7030E94AB1A8091A0039091B1
:10557000A1030E94111B85E391E00E94D81740EE21
:1055800051E06AE083E20E94AC1C84EB9BE00E9445
:10559000D8174CEE51E068E28AE00E94AC1C85E32B
:1055A00091E00E94D81743EF51E06CE387E30E943B
:1055B000AC1C0E94381B8111DECF60ED77E080E0EB
:1055C00090E00E940D1924E6422E512C612C712C82
:1055D00036E4232E36E0332E0E943F194B015C0146
:1055E00080913705811131C280913A0581112DC218
:1055F0008091380590913905009709F455C1DC0177
:10560000ED91FC910084F185E02D0995892B09F439
:105610001CC28091380590913905DC01ED91FC9117
:105620000284F385E02D0995182F80913B05909118
:105630003C050097B1F0DC01ED91FC910084F1850F
:10564000E02D0995892B09F400C280913B059091CA
:105650003C05DC01ED91FC910284F385E02D099578
:10566000182F80913D0590913E050097B1F0DC0127
:10567000ED91FC910084F185E02D0995892B09F4C9
:10568000E4C180913D0590913E05DC01ED91FC91D6
:105690000284F385E02D0995182F80913F059091A4
:1056A0004005892B89F08091CC059091CB05981706
:1056B0000CF4FCC0E82F082E000CFF0BE555FA4F48
:1056C00010818F5F8093CC058091410590914205B8
:1056D000892B89F10FEF80914405909145050E9437
:1056E00073218091430587FD03C060E00E949C18F0
:1056F0000EBD00000DB407FEFDCF1EB58091430521
:1057000087FD03C061E00E949C181A3021F480914B
:10571000CD058D3001F7E12E012E000CFF08C701E9
:105720000E941739892B29F4C7010E94D934892B8B
:1057300091F21093CD05E091BE068091BF06909145
:10574000C006E80FF92FF11D10838091BE068F5F10
:105750008093BE068091BE06883718F087E7809355
:10576000BE06C0903503D0903603E0903703F0902A
:1057700038031A3009F0CAC1E091BE068091BF0615
:105780009091C006E80FF92FF11D10828091BF069D
:105790009091C006B5E08E3C9B0709F0ACC13092F9
:1057A000C0062092BF069093C2068093C106109255
:1057B000BE0681E08093C3060E943F1960932F05C7
:1057C000709330058093310590933205C092330574
:1057D000D0923405E0923505F092360510923503EB
:1057E0001092360310923703109238032EC184E0D2
:1057F00028CE9E3040F42850310981E001C0880F46
:105800002A95EAF73CCE2E503109F7CF8091410519
:1058100090914205892B09F440C01FB7F8948091FC
:105820000A03811124C0E7E1F1E08491EBE2F1E0A9
:105830009491E82FF0E0EE0FFF1FED5FFE4FA59172
:10584000B491EC91E92321F461E08AE00E949C1874
:105850008AE00E9448188CB580618CBD8CB580644C
:105860008CBD8DE00E9448188BE00E944818809102
:105870000A038F5F80930A031FBF83E5809344056B
:10588000109245058091430587FD07C00E94481886
:1058900061E0809143050E949C186AE070E080E01E
:1058A00090E00E940D194CCE10E0BFCE0E94E81887
:1058B0006B017C0180916C03811165C081E0809354
:1058C0006C0380936B039FEF90936A0310926903BC
:1058D0009FE1909368038093470380914703806220
:1058E0008093470380914603813009F0DEC0109217
:1058F00046030E94E8186B017C0180914703809366
:10590000BB0080916E0390916F03A0917003B091E2
:105910007103892B8A2B8B2BA1F00E94E818009130
:105920006E0310916F0320917003309171036C1915
:105930007D098E099F09061717072807390708F4FC
:1059400043C08091BC0083FDD8CF85EC8093BC0020
:105950000E94E8186B017C0180916C03813009F48E
:10596000A6C080916903803208F0C3C080916903AA
:10597000A8E4B3E0E5E1F3E090E0981751F12D9150
:1059800021939F5FFACF80916E0390916F03A09156
:105990007003B0917103892B8A2B8B2B09F48ACF6A
:1059A0000E94E81800916E0310916F03209170031C
:1059B000309171036C197D098E099F09061717072D
:1059C0002807390708F076CF80916D030E94DA1F0F
:1059D00080E010921403809313038032B1F510928B
:1059E000CB0500E210E080913F0590914005DC017D
:1059F000ED91FC910284F385E02D09958A3021F424
:105A00009091CD059D3071F48093CD059091CB059B
:105A1000E92F092E000CFF0BE555FA4F80839F5F9D
:105A20009093CB0501501109F1F68091CB0581507F
:105A30008093CB05811107C08091AB058A3019F4A2
:105A40008FEF8093CB051092CC058091C3068823FD
:105A500009F48FC11092C306E090C106F090C2060F
:105A600010927A041092790410927B0410927E04B2
:105A7000D7018C91843219F0813209F09BC2E1E0A8
:105A8000F0E0F0937A04E0937904C701FC010196F9
:105A900020812111FBCF80818A3209F4AEC5EE1638
:105AA000FF0608F087C23197F6CF85EE4FCF809181
:105AB0006E0390916F03A0917003B0917103892BD5
:105AC0008A2B8B2B09F448CF0E94E81800916E03B3
:105AD00010916F0320917003309171036C197D094F
