:100000000C9465170C948D170C948D170C948D1708
:100010000C948D170C948D170C948D170C948D17D0
:100020000C948D170C948D170C948D170C948D17C0
:100030000C948D170C948D170C948D170C948D17B0
:100040000C94CC200C948D170C943C210C9416210C
:100050000C948D170C948D170C948D170C948D1790
:100060000C948D170C948D17FFE0FFD1AFFF32FF7A
:10007000D0FFFEFFE0FFD1AEFFD0FFFEFFE0FFD1DB
:100080001000FFFEFFD0FFE0FFC1FFD1AED580A87A
:100090003FD300408D142000A1C8DA1281CFD9F1DE
:1000A000DB402EA4A6AFFFD0FFFE000D12FEFC0821
:1000B00001B2036F20FFFE0BFE08FE0000000300EC
:1000C0000101080803010080808080808000800397
:1000D0000202040106A0A006070706000028287CEB
:1000E00028F85050050A0A0600FF2070A8A07028C2
:1000F00028A87020080808090000649468081016F1
:100100002926060808080100609090609488986489
:100110000102020200068080030A0A0400FE204059
:100120004080808080404020030A0A0401FE804015
:100130004020202020404080030303040005A0400D
:10014000A00505050600012020F820200203030376
:1001500000FE404080030101040003E001010103AF
:100160000100800308080300002020404040408038
:1001700080050808060000708888888888887002D2
:10018000080806010040C0404040404040050808C3
:1001900006000070880808304080F805080806004E
:1001A00000708808300808887005080806000010EC
:1001B00030505090F81010050808060000784040B4
:1001C0007008088870050808060000708880F088AC
:1001D000888870050808060000F8081020204040B4
:1001E00040050808060000708888708888887005B7
:1001F000080806000070888888780888700106065C
:100200000301008000000000800208080300FE4097
:1002100000000000404080030505060101204080E9
:100220004020040303050002F000F0030505060169
:1002300001804020408004080806010060901020E2
:10024000404000400A09120B00FF1F0020804D4073
:100250009240A240A4809B0040003E00070808078F
:10026000000010102828447C82820508080701003D
:10027000F08888F0888888F00608080801007884EB
:10028000808080808478060808080100F0888484D3
:10029000848488F0050808070100F88080F88080D1
:1002A00080F8050808060100F88080F080808080D2
:1002B000060808080100788480808C84847C060805
:1002C00008080100848484FC848484840108080371
:1002D0000100808080808080808004080805000004
:1002E0001010101010109060050808070100889089
:1002F000A0E0909088880408080601008080808033
:10030000808080F007080809010082C6C6AAAA9268
:100310009292060808080100C4C4A4A494948C8C8A
:100320000608080801007884848484848478050899
:1003300008070100F08888F080808080070909089C
:1003400001FF7884848484948C7C0205080807016A
:1003500000F08888F0888888880508080701007000
:1003600088807008888870050808050000F820203B
:10037000202020202006080808010084848484842A
:1003800084847807080807000082824444442828AF
:10039000100908100900008880888049004900552C
:1003A000002200220022000508080701008888506A
:1003B00020505088880708080700008244442828F5
:1003C000101010050808070100F8081020204080D0
:1003D000F8020A0A0301FEC080808080808080804D
:1003E000C0030808030000808040404040202002F5
:1003F0000A0A0300FEC04040404040404040C00563
:10040000050506000320205050880601010600FE65
:10041000FC0202020300078040050606050000E01A
:1004200010709090680508080600008080B0C888A9
:1004300088C8B004060605000060908080906005C2
:100440000808060000080868988888986804060666
:100450000500006090F080906004080804000030FF
:1004600040E040404040400508080600FE6898888B
:1004700088986808700508080600008080B0C88861
:1004800088888801080802000080008080808080C1
:1004900080020A0A02FFFE400040404040404040C7
:1004A00080040808050000808090A0C0A090900102
:1004B0000808020000808080808080808007060617
:1004C000080000EC9292929292050606060000B097
:1004D000C88888888805060606000070888888888D
:1004E000700508080600FEB0C88888C8B08080057E
:1004F00008080600FE6898888898680808030606B9
:10050000040000A0C0808080800406060500006012
:1005100090601090600308080400004040E04040F4
:100520004040600406060500009090909090700591
:10053000060606000088885050202007060608009E
:100540000092925454282805060606000088502080
:1005500050888805080805FFFE4848505030202084
:10056000C0040606050000F010204080F0030A0ACF
:100570000300FE20404040804040404020010A0AE5
:100580000301FE80808080808080808080030A0A52
:100590000300FE8040404020404040408006020270
:1005A0000700036498FFFFFFFFFFFFFFFFFFFFFF50
:1005B000FFFFFFFFFFFFFFFFFFFFFFFFFFFFFFFF4B
:1005C000FFFFFFFFFFFF0000000300010108080319
:1005D00001FE80008080808080800508080601FF81
:1005E0001070A8A0A0A870400508080600003048B8
:1005F00040E0404048B0040606050001906090903D
:10060000609005080806000088888850F820F820C7
:10061000010A0A0301FE80808080000080808080C3
:10062000050A0A0600FE7088C07098C870188870A5
:10063000030101030007A007070709010038449AD6
:10064000A29A4438030505040003E020A000E00559
:1006500005050600002850A05028050303070102E5
:10066000F80808030101040003E007070709010077
:100670003844BAB2AA4438030101030007E0040475
:100680000404000460909060050707060000202025
:10069000F8202000F803040403000460A040E003F5
:1006A0000404030004E04020C002020203000740EB
:1006B000800408080500FE9090909090F0808006DD
:1006C0000A0A0600FE7CE8E8E868282828282802AC
:1006D0000101030003C00202020300FE40C0020445
:1006E0000403000440C04040030505040003E0A0EB
:1006F000E000E0050505060000A0502850A009080C
:10070000100900004400C400480048001100130014
:100710002780210008080809000044C44848131530
:100720002227090810090000E00044002400C80046
:1007300009001300178021000408080601FE2000AC
:10074000202040809060070B0B0700002010001055
:10075000102828447C8282070B0B07000008100039
:1007600010102828447C8282070B0B0700001028F9
:100770000010102828447C8282070B0B070000140D
:10078000280010102828447C8282070A0A070000EB
:10079000280010102828447C8282070B0B070000D9
:1007A00010281010102828447C82820908100A00A2
:1007B000001F80180028002F804800780088008FD4
:1007C00080060A0A0801FE78848080808084781080
:1007D00030050B0B070100402000F88080F8808076
:1007E00080F8050B0B070100102000F88080F880CE
:1007F0008080F8050B0B070100205000F88080F87E
:10080000808080F8050A0A0701005000F88080F80F
:10081000808080F8020B0B030000804000404040C5
:100820004040404040020B0B0301004080008080AC
:10083000808080808080030B0B03000040A000407C
:1008400040404040404040030A0A030000A00040EE
:1008500040404040404040070808080000784442BB
:10086000F242424478060B0B080100285000C4C431
:10087000A4A494948C8C060B0B0801002010007823
:1008800084848484848478060B0B0801000810009B
:100890007884848484848478060B0B0801002050BB
:1008A000007884848484848478060B0B08010028F3
:1008B00050007884848484848478060A0A080100BD
:1008C00048007884848484848478050505060001C2
:1008D0008850205088060A0A0801FF04788C9494F6
:1008E000A4A4C47880060B0B0801002010008484A7
:1008F000848484848478060B0B080100081000842B
:1009000084848484848478060B0B080100205000C2
:100910008484848484848478060A0A080100480058
:100920008484848484848478070B0B070000081077
:100930000082444428281010100508080701008090
:1009400080F08888F080800408080500006090909E
:10095000A0909090A0050909050000402000E0103B
:1009600070909068050909050000204000E01070B3
:10097000909068050909050000205000E010709073
:10098000906805090905000050A000E010709090E3
:10099000680508080500005000E010709090680598
:1009A0000909050000205020E010709090680706AB
:1009B00006080000EC127E90926C0408080500FE08
:1009C000609080809060206004090905000040204C
:1009D000006090F08090600409090500002040004C
:1009E0006090F080906004090905000040A000605C
:1009F00090F0809060040808050000A0006090F06E
:100A000080906002090902FF0080400040404040A1
:100A10004040020909020000408000808080808000
:100A20008003090902FF0040A000404040404040D0
:100A300003080802FF00A000404040404040050974
:100A40000906000040789078888888887004090931
:100A500005000050A000E0909090909005090906D4
:100A60000000402000708888888870050909060009
:100A70000010200070888888887005090906000029
:100A800020500070888888887005090906000028B1
:100A9000500070888888887005080806000050009B
:100AA0007088888888700505050600012000F80018
:100AB0002007060606FF003A4C546444B8040909AE
:100AC0000500004020009090909090700409090566
:100AD000000010200090909090907004090905008B
:100AE0000040A000909090909070040808050000CD
:100AF000A000909090909070050B0B05FFFE0810E1
:100B00000048485050302020C0050A0A0600FE80E8
:100B100080B0C88888C8B08080050A0A05FFFE50EA
:100B20000048485050302020C0002F2CF0F614040C
:100B3000DC0B9020FFF81BF719F8000000070000FD
:100B40000417170902003070707070707070706058
:100B500060606060606060400070F0F0E0080A0A69
:100B60000E030DE3C7C7C7C7C3C3C3C3C20E122456
:100B70000F0102011803180310023006303FFC0475
:100B8000600C600C600C4008C0FFF81880118031C8
:100B9000803180310023000C19320F01FD06000660
:100BA0000006001FC03FF0666066006600660076C3
:100BB000003E001F8007C007E00670063006308642
:100BC00030C630E660FFC07F8006000600060014D5
:100BD000143C1601FF1E00C0630180430380C183E3
:100BE00000C18600C18C00C19C0061180063300008
:100BF0003C73C0006C6000C86001983003983003FB
:100C000018300618300E08201C0C601807803000C1
:100C10000013164215020003C00004E00008600043
:100C200018600018600018600018C0001D80000FD8
:100C300000000C00001C3FE03E0E8077060063863B
:100C400000C18600C1C600C0EC00C07C00C03C00F2
:100C5000601E00302FC01FC380030A0A08030DE086
:100C6000C0C0C0C0C0C0C0C0C0071E1E0A02FB0278
:100C70000C1818303060606060C0C0C0C0C0C0C018
:100C8000C0C0C0E0606060703038180C02071E1EE3
:100C90000A01FB80603038181C0C0C0C0E0606068E
:100CA000060606060606060C0C0C0C1818303060FA
:100CB000800C0D1A0E010B0600060086006630F24D
:100CC000F01B8006001B8072F0E63006200600064E
:100CD000000C0B160D0103060006000600060006B8
:100CE00000FFF006000600060006000600040808E3
:100CF0000702FB70F03030302040C00901020B01C8
:100D000008FF8004040407020070F0F0E00D1E3CB0
:100D10000F01FB0018003800300030007000600048
:100D20006000E000C001C001800180038003000773
:100D300000060006000E000C000C001C0018003815
:100D40000030003000700060006000E000C0000D66
:100D500013260F0100078018C0206060304030402B
:100D600038C018C018C018C018C018C018C018C0A3
:100D70001060106030302018400F800B13260F02D7
:100D80000002001E007E0086000600060006000627
:100D90000006000600060006000600060006000623
:100DA0000006000F007FE00B13260F02000F8030BB
:100DB000C06060606060600060006000C000C001F2
:100DC000800300070006000C00180030207020E0AF
:100DD00020FFE00B13260F02001F00718060C0E0AF
:100DE000C000C000C0018003000F0003C000C000AD
:100DF000E0006000600060006080C0C1807F000C87
:100E000013260F0100004001C003C003C006C00C40
:100E1000C00CC018C030C030C060C0E0C0FFF000DF
:100E2000C000C000C000C000C007F00B13260F02B6
:100E3000003FE02000200060006000600060007F54
:100E40000061C000C00060006000600060006000E1
:100E50004080C0C1803F000C14280F020000C00772
:100E6000000E0018003000700060006000CF80F0BD
:100E7000E0E060C070C030C030C030603060202022
:100E80006030400F800C13260F0200FFF08060805E
:100E90006000E000C000C001800180030003000783
:100EA00000060006000C000C001C00180038003082
:100EB000000C13260F02001F8030C06060E060E06D
:100EC00060E060F8C07F801F801FC031E06070C0AC
:100ED00070C030C030C020602070401F800C1428CB
:100EE0000F02FF0F8031C020E04060C070C030C0F2
:100EF00030C030C030607030B01F30006000600023
:100F00006000C0018007001E003000040F0F0702C0
:100F10000070F0F0600000000000000070F0F0E0F1
:100F20000414140702FB70F0F060000000000000E1
:100F3000000070F03030302040C00C0A140E010464
:100F4000003000F007C03E00F800F0007E000F8087
:100F500001F000700C060C0E0106FFF0000000000E
:100F600000000000FFF00C0A140E01046000F800FD
:100F70001F0007E000F001F007C03E00F000C000D5
:100F80000A172E0E02001F00638041C0C0C0C0C0FF
:100F900080C000C0018001800300030006000E0035
:100FA0000C000C000C000C00000000000E001E00E5
:100FB0001E001C0018194B1A01FB003F8001C0E005
:100FC0000200380C001C18000C103C8E2043866078
:100FD0008187418183C10183C30183C30183C3012D
:100FE00083C30183C30183C30182E181866183845A
:100FF00070C5C83078F03800001C00040F001C03D6
:10100000C070007F8013143C13000000400000E01B
:101010000000E00001E00001F00001B0000330003A
:10102000033800031800061C00061C00060C000F05
:10103000FE000C0600080600180700180300100345
:1010400000300380FE0FE00E14281101003FC0F0B5
:101050007030383018301830183018303030E03FE9
:10106000E030703038301C300C300C300C300C302C
:10107000183030FFC00E142811010003F80C1C10AA
:10108000083000600060004000C000C000C000C028
:1010900000C000C000C00060006000700038041C88
:1010A0001807E011143C1301003FE000F038003055
:1010B0000C003006003003003003003003803001A4
:1010C000803001803001803001803001803001802B
:1010D000300300300300300300300600300C0030D5
:1010E0003800FFE0000D1428100100FFF030103030
:1010F000103010300030003000300030003FE03061
:10110000403000300030003000300030083008300F
:1011100018FFF80C14280F0100FFF03010301030C9
:1011200010300030003000300030003FC0308030E0
:10113000003000300030003000300030003000FE61
:101140000012143C13010001FE00060F000800000D
:10115000100000200000600000400000C00000C03F
:101160000000C00000C00000C01FC0C00700C003D6
:10117000006003006003003003001803000C03004C
:1011800003FC0013143C150100FC07E03001803023
:1011900001803001803001803001803001803001D9
:1011A000803001803FFF803001803001803001803D
:1011B000300180300180300180300180300180308A
:1011C0000180FC07E00614140A0200FC30303030C5
:1011D0003030303030303030303030303030FC0B68
:1011E00019320AFDFB0FE0018001800180018001BE
:1011F00080018001800180018001800180018001E7
:101200008001800180018001800180018001000156
:101210000003006200FC0011143C130100FC7F007D
:1012200030180030300030600030E00031C0003154
:1012300080003300003600003E000036000037001A
:101240000033800031C00030E000307000307800A2
:10125000303C00301E00FC0F800D14280F0100FCF4
:1012600000300030003000300030003000300030FE
:1012700000300030003000300030003000300030EE
:101280000830083018FFF818143C1A0100F8003E26
:101290003C00383C00783E00783600D83600D8371D
:1012A000009833019833819831831831C31831C6BF
:1012B0001830C61830E618306C18307C18303818E2
:1012C000303818303818FC10FF13143C150100F0AA
:1012D00007E03801803C01803C01803E01803701FD
:1012E0008033818033818031C18030E18030618002
:1012F000307180303980301D80300D80300F80306B
:101300000780300380300380FC018011143C1301FE
:101310000003F0000C1800100C0030060020030041
:10132000600300400380C00180C00180C00180C014
:101330000180C00180C00180E00100600300600204
:10134000003006003804000C180007E0000F1428D5
:101350001101003FE0F038301C300E30063006300E
:10136000063006300C300C343833E03000300030BA
:10137000003000300030003000FE0013194B130124
:10138000FB03F0000C1800100C00300600200300D6
:10139000600300400380C00180C00180C00180C0A4
:1013A0000180C00180C00180E00100600300600393
:1013B000003006001804000C180007F00000700050
:1013C000001800000E200007C000018012143C121B
:1013D00001003FC000F07000301800300C00300CED
:1013E00000300C00300C003018003070003FE0007E
:1013F0003FC00031C00030E000307000307000307D
:101400003800303C00301C00300F00FC0FC00C14C2
:10141000280F02000FE030E04040C000C000E000B4
:10142000F8007E007F001FC007E001F000F00070B0
:10143000003000308020C060E0C07F00101428120F
:101440000100FFFF81838181818101800180018012
:101450000180018001800180018001800180018084
:1014600001800180018001800FF013143C15010000
:10147000FC07E03001803001803001803001803095
:1014800001803001803001803001803001803001E6
:1014900080300180300180300180300180300100D7
:1014A0001803001C06000E0C0003F00014143C1579
:1014B0000000FE03F03800C01800801C01800C0101
:1014C000800E03000E030006030007060007060057
:1014D000030600038C00018C0001CC0001D8000041
:1014E000D80000F80000F0000070000060001B143D
:1014F000501B0000FE040FE038040300180E030028
:10150000180E03001C0F03001C1B02000C1B06001E
:101510000C1B86000C3186000E3186000E31C40093
:101520000660CC000660CC000760EC0007C06C00D1
:1015300003C0780003C078000380380003803800BF
:101540000300300013143C1400007F1FC03C070050
:101550001C06000E0600070C00071C000398000183
:10156000F00001F00000E00000F00001F00001B820
:1015700000031C00070C00060E000C07001C038073
:101580003803C0FF0FE012143C130000F01FC038F6
:1015900007001C06000C0C000E0C000718000718B2
:1015A0000003300003B00001E00001E00000C000D3
:1015B00000C00000C00000C00000C00000C000006B
:1015C000C00000C00007F8000E14281101007FFCC5
:1015D000601C40384078007000E000E001C003C0AB
:1015E0000380070007000E001E001C0038003804AE
:1015F0007004F00CFFFC071E1E0A02FBFEC0C0C0F8
:10160000C0C0C0C0C0C0C0C0C0C0C0C0C0C0C0C0DA
:10161000C0C0C0C0C0C0C0C0C0FE0D1E3C0F01FB9A
:10162000C000C00060006000700030003000180092
:1016300018001C000C000C000E0006000600030041
:10164000030003800180018000C000C000C0006072
:10165000006000700030003000180018071E1E0ADD
:1016600001FBFE0606060606060606060606060632
:10167000060606060606060606060606060606FE12
:101680000C0F1E100209020006000F000F001B00C5
:101690001B80118031C031C060C060E06060C070EC
:1016A000C03080200D01020F01FDFFF80707070A77
:1016B000001060F038180C04020D0F1E0F01000F0F
:1016C000C030E070606060006000600FE03FE07E6E
:1016D00060F060E060C060C06041E03E780F1830AC
:1016E0001000003000F000300030003000300030DA
:1016F000003000300030F031F8361C3C0C380E3031
:101700000630063006300630063004300C30081C37
:101710001007E00C0F1E0E010007E018602020608B
:10172000004000C000C000C000C000C000C0006099
:1017300000702038701F800F183011010000180051
:101740007800180018001800180018001800180772
:10175000F81838201860184018C018C018C018C0F1
:1017600018C018C0186018703838DE0F180D0F1E1A
:101770000F010007C01860203060184018C018FF23
:10178000F0C000C000C000E0006000700838300FFA
:10179000C00B18300A010003E004C018001000302C
:1017A000003000300030003000FF003200300030E8
:1017B00000300030003000300030003000300030A9
:1017C0000030003000FE000F172E1001F8078618B9
:1017D000FC20606030603060306030706038401FE6
:1017E00080080010003C003FE00FF83FFC707CE0F8
:1017F0000CC00CC008601070201FC01018301201FF
:10180000001000F0003000300030003000300030B8
:1018100000300030703188360C380C380C300C3009
:101820000C300C300C300C300C300C300C300CFC0C
:101830003F06151509010030707060000030F0306F
:101840003030303030303030303030FC091D3A0824
:10185000FCF8018003800380030000000000018089
:10186000078001800180018001800180018001806A
:101870000180018001800180018001800180018060
:1018800001800100030002007C00F8000F183010F6
:1018900001001000F0003000300030003000300057
:1018A0003000300030FC307030E0318033003600E2
:1018B0003E0036003700338031C030E03070307881
:1018C000FC3E06181809010010F03030303030307E
:1018D000303030303030303030303030303030FC3C
:1018E000180F2D1A0100F0F07833198C341A0C38C7
:1018F0001C0C381C0C30180C30180C30180C30181C
:101900000C30180C30180C30180C30180C30180C27
:10191000FC7E3F100F1E1201007070B188360C382B
:101920000C380C300C300C300C300C300C300C30CF
:101930000C300C300CFC3F0E0F1E10010007C018BD
:101940007020386018401CC00CC00CC00CC00CC00B
:101950000CE0086018701038200FC00F172E11010E
:10196000F870F0B318341C380C300E3006300630E6
:1019700006300630063004300C30083C1037E030BA
:1019800000300030003000300030003000FE000E2B
:10199000172E1001F807901870203060304030C0CA
:1019A00030C030C030C030C030C0306030607030C7
:1019B000B01F300030003000300030003000300008
:1019C0003001FC0B0F1E0D010031E0F3E034403814
:1019D000403800300030003000300030003000303F
:1019E0000030003000FE00090F1E0C02003F0043D3
:1019F00000C100C000E000F8007E003F000F80033F
:101A000080018081808100C300FC000A14280B0142
:101A10000010003000300030003000FFC0310030D6
:101A20000030003000300030003000300030003036
:101A3000003000300030801F400F0F1E11010030B9
:101A400018F0783018301830183018301830183036
:101A500018301830183018303818DE0F180F0F1ED5
:101A6000100000FC3E380C380818181C180C100C1C
:101A7000300E30062007600740034003C00180019C
:101A800000160F2D170000FC107C30181838381085
:101A9000183830183C301C6C300C6E200C4E600C2A
:101AA000C6600EC7400683400783C00783C003019A
:101AB00080020100100F1E100000FE3F3C1C1C1095
:101AC0000E30066007C003C001C003C006E00C7002
:101AD0000C381818381CFC3F10172E10FFF87E1F0A
:101AE0001C061C040C0C0E0C0E080618071803101C
:101AF000033003B001A001E001E000C000C000809D
:101B00000180018003007E007C00F8000C0F1E0E97
:101B100001007FF0406040E001C0018003800700C9
:101B200006000E001C001C00381070107030FFF012
:101B3000081E1E0B02FB03060C08181818181C0CB4
:101B40000C0C0C1830F81C0C0C0C0C1C1818181869
:101B5000180C06030220200703FAC0C0C0C0C0C092
:101B6000C0C0C0C0C0C0C0C0C0C0C0C0C0C0C0C075
:101B7000C0C0C0C0C0C0C0C0C0C0081E1E0B01FB9A
:101B8000C0603018181818183830303030381F0C32
:101B900018303030303818181818103060C00E0661
:101BA0000C1001071C083E0C7F8847F083F080E092
:101BB000FFFFFFFFFFFFFFFFFFFFFFFFFFFFFFFF35
:101BC000FFFFFFFFFFFFFFFFFFFFFFFFFFFFFFFF25
:101BD000FF0000000700000418180902F770F0F079
:101BE000E000002060606060606060606070707045
:101BF00070707070400C14280F02FF06000600067B
:101C0000000FE036E066606600C600C600C600C68B
:101C100000C600C600E62076303FC01F80060006E2
:101C20000006000D13260F010007E00870103010A9
:101C30002030203000300030003000FF0030003015
:101C400000300030003008201860307FF083F00B47
:101C50000A140F0204C0607FC031C060C060C06061
:101C6000C071C03F80404080201013260FFF00F05D
:101C70003F381C1C181C380E300670076003C00368
:101C8000C0018001803FFC01800180018001800152
:101C90008001800FF00220200703FAC0C0C0C0C03E
:101CA000C0C0C0C0C0C0C0C0C080000040C0C0C074
:101CB000C0C0C0C0C0C0C0C0C0C0C00B162C0F0286
:101CC000001F8031C060806000700078003E006FAF
:101CD00080C7C0C1E0C0E0E060F0607C603FC00F42
:101CE0008003C001C040C040C060803F00090408BC
:101CF0000D02116180E380E380C30015143C1801DC
:101D00000001FC000603001800C0300060307C6059
:101D1000618630630030C20018C60018C60018C6BD
:101D20000018C60018C7001863003061C63030F8CC
:101D3000603000601800C006030001FC00070A0ABA
:101D400008010938CC8C1C6CCCDCEE00FE0C0E1C9F
:101D5000100100061004300860186030C071C0E344
:101D600080E38071C030C018600860043006100D38
:101D7000060C0F0103FFF8001800180018001800E7
:101D8000180901020B0108FF800A0B160B010B1E3C
:101D90000061007E80934097409C4094409240694F
:101DA0008021001E000A0102100313FFC00707076D
:101DB0000B020C3C6EC6C6C6EC780C0E1C0D010264
:101DC00006000600060006000600FFF006000600FA
:101DD00006000600040000000000FFE0080B0B0AEC
:101DE000010A3E63C30306060C183261FF090C1892
:101DF0000B00091F0033806180018003000F000188
:101E000080018001800180C3003E000707070A03AC
:101E1000100C1E18303060C00F172E1101F830085A
:101E2000F038301830183018301830183018301892
:101E30003018383838783FF837DE339830003000C3
:101E40003000300038003800380030000F183012F1
:101E500001FC0FFE30FC60D840D8C0D8C0D8C0D834
:101E6000C0D8E0D870D838D80FD800D800D800D85B
:101E700000D800D800D800D800D800D800D800D8A2
:101E800003FE03040405010960E0E0C0050707073D
:101E900001F9302030781830E0080B0B0B020A18DB
:101EA000F81818181818181818FF070A0A0901094D
:101EB000386CC6C6C6C66C3800FE0C0E1C1002007C
:101EC00082004100618030C038E01C600C701C70E2
:101ED0001E6038E030C0618041008200101326137C
:101EE00002003006F00E300C3018303830303060E0
:101EF00030E030C0CD82018E031E061606260C4649
:101F0000187F18863006601F0F1326120200300655
:101F1000F00C3008301830303030306030C030C015
:101F2000CD80011C0366064604060C0C18181830F8
:101F3000306260FE1113391301003C0300460600B5
:101F40000604001C0C000618000610000630008E67
:101F5000600078600000C100018700018F00030B62
:101F6000000213000623000C3F800C4300180300FE
:101F7000300F800A18300D02F70E001E001E001CE4
:101F8000000000000000000C000C000C000C001C05
:101F90000018003000300060006000C000C040C089
:101FA000C0C0C0E08061803E00131B5113000006DA
:101FB00000000F000007800001C00000600000105A
:101FC0000000000000400000E00000E00001E00030
:101FD00001F00001B00003300003380003180006D0
:101FE0001C00061C00060C000FFE000C0600080674
:101FF00000180700180300100300300380FE0FE0F4
:10200000131B51130000000800001E00003C0000DC
:10201000700001C00001000000000000400000E06E
:102020000000E00001E00001F00001B0000330001A
:10203000033800031800061C00061C00060C000FE5
:10204000FE000C0600080600180700180300100325
:1020500000300380FE0FE0131B5113000000E0006E
:1020600001E00001F000033800060C000C04000041
:10207000000000400000E00000E00001E00001F08E
:102080000001B000033000033800031800061C00F4
:10209000061C00060C000FFE000C060008060018C7
:1020A0000700180300100300300380FE0FE0131A2E
:1020B0004E13000003840007E60004FC000838000B
:1020C00000000000000000400000E00000E000010F
:1020D000E00001F00001B0000330000338000318F5
:1020E00000061C00061C00060C000FFE000C06007B
:1020F000080600180700180300100300300380FED4
:102100000FE013194B130000060C00060C000E1C08
:1021100000060C0000000000400000E00000E000AD
:1021200001E00001F00001B00003300003380003BB
:102130001800061C00061C00060C000FFE000C0612
:102140000008060018070018030010030030038081
:10215000FE0FE0131B5113000000E00001B000016E
:10216000300003300001B00001E00000000000403A
:102170000000E00000E00001E00001F00001B0001C
:10218000033000033800031800061C00061C00067C
:102190000C000FFE000C06000806001807001803CC
:1021A00000100300300380FE0FE017143C190000FC
:1021B00003FFFC007C04006C0400EC0400CC000174
:1021C000CC00018C00018C00038C0003FFF8070C8D
:1021D00010060C00060C000C0C000C0C001C0C0073
:1021E000180C02180C02300C06FC3FFE0F1B3611B7
:1021F00001F903F80C1C100830006000600040007A
:10220000C000C000C000C000C000C000E00060000E
:10221000700078023C0C1FF80FF00080008001E095
:1022200000E0006000C003000D1B3610010010002C
:1022300038001C000F00038000C00000FFF03010C9
:1022400030103010300030003000300030003FE0FF
:1022500030403000300030003000300030083008AE
:102260003018FFF80D1B36100100002000F001E0CF
:10227000038007000C000000FFF030103010301019
:10228000300030003000300030003FE0304030009F
:102290003000300030003000300830083018FFF8CF
:1022A0000D1B36100100030007800FC01CC03860F2
:1022B00020300000FFF030103010301030003000BF
:1022C0003000300030003FE030403000300030005F
:1022D00030003000300830083018FFF80D19321087
:1022E000010018303870387030600000FFF0301096
:1022F00030103010300030003000300030003FE04F
:1023000030403000300030003000300030083008FD
:102310003018FFF8091B360AFF006000F000780053
:102320001C000700010000001F80060006000600D8
:10233000060006000600060006000600060006006D
:1023400006000600060006000600060006001F80C4
:10235000081B1B0A0200060F1E38608000FC30308C
:10236000303030303030303030303030303030306D
:10237000FC0A1B360A00001C001E003E007300C150
:102380008080C000003F000C000C000C000C000C12
:10239000000C000C000C000C000C000C000C000CDD
:1023A000000C000C000C000C000C003F000A19325D
:1023B0000A0000C180E1C0E1C0C18000003F000C04
:1023C000000C000C000C000C000C000C000C000CAD
:1023D000000C000C000C000C000C000C000C000C9D
:1023E000000C003F0012143C1300001FF000781C8A
:1023F000001806001803001801801801801801C099
:102400001800C01800C0FF80C01800C01800C01815
:1024100000C01801801801801801801803001806F8
:1024200000181C007FF000131A4E150100038400F1
:1024300007E600047C00083800000000000000F0FF
:1024400007E03801803C01803C01803E018037017B
:102450008033818033818031C18030E18030618080
:10246000307180303980301D80300D80300F8030E9
:102470000780300380300380FC0180111B51130161
:10248000000C00001E00000F000003800000E000B0
:1024900000200000000003F0000C1800100C0030B9
:1024A0000600200300600300400380C00180C001DB
:1024B00080C00180C00180C00180C00180E00100B7
:1024C0006003006002003006003804000C180007AA
:1024D000E000111B51130100001800003C000078BF
:1024E0000000E00001800002000000000003F00096
:1024F0000C1800100C0030060020030060030040A0
:102500000380C00180C00180C00180C00180C00183
:1025100080C00180E001006003006002003006001E
:102520003804000C180007E000111B5113010001D2
:10253000C00001E00003E0000730000C1800080CA8
:102540000000000003F0000C1800100C0030060022
:10255000200300600300400380C00180C00180C0F0
:102560000180C00180C00180C00180E001006003E3
:10257000006002003006003804000C180007E0007C
:10258000111A4E13010003040007CC0008F80010D4
:10259000700000000000000003F0000C1800100C98
:1025A00000300600200300600300400380C001806B
:1025B000C00180C00180C00180C00180C00180E0F6
:1025C00001006003006002003006003804000C18AF
:1025D0000007E00011194B1301000C18000E1C003D
:1025E0000E1C000C180000000003F0000C18001076
:1025F0000C00300600200300600300400380C0018F
:1026000080C00180C00180C00180C00180C0018005
:10261000E001006003006002003006003804000C96
:10262000180007E0000B0A140D0104C06060C031FF
:10263000801B000E000E001B00318060C0C06011C6
:10264000153F1301FF03F180041F00180E00301E18
:1026500000201F00603F00403B80C07380C0E180CD
:10266000C0E180C1C180C38180C30180E701006EE9
:1026700003007C02007C06003804007C1800C7E0E0
:1026800000800000131B511501000600000F000020
:1026900007800001C000006000001000000000FC86
:1026A00007E030018030018030018030018030014E
:1026B0008030018030018030018030018030018025
:1026C00030018030018030018030018030010018FD
:1026D00003001C06000E0C0003F000131B51150133
:1026E00000000C00001E00003C0000700000C00054
:1026F000010000000000FC07E03001803001803064
:102700000180300180300180300180300180300153
:1027100080300180300180300180300180300180C4
:102720003001803001001803001C06000E0C00036D
:10273000F000131B5115010000E00000F00001F053
:1027400000039800060C00040600000000FC07E0EF
:1027500030018030018030018030018030018030D4
:1027600001803001803001803001803001803001F3
:10277000803001803001803001803001001803007A
:102780001C06000E0C0003F00013194B1501000687
:102790000C00070E00070E00060C00000000FC07EE
:1027A000E0300180300180300180300180300180D4
:1027B0003001803001803001803001803001803074
:1027C0000180300180300180300180300100180329
:1027D000001C06000E0C0003F000121B5113000039
:1027E000000C00001E00003C0000700000C0000152
:1027F0000000000000F01FC03807001C06000C0C91
:10280000000E0C0007180007180003300003B0008A
:1028100001E00001E00000C00000C00000C00000B6
:10282000C00000C00000C00000C00000C00007F8E9
:10283000000F1428110100FE003000300030003F6E
:10284000E03078301C300E3006300630063006306E
:102850000C300C343833E0300030003000FE001013
:10286000183012010001E006380818101C100C3056
:102870000C300C301C303830F031C03180318031B8
:10288000C030F0307C303E300F3007300331033140
:10289000033186F1F80D172E0F0100380038001CA7
:1028A000000E0006000300010000000FC030E070C1
:1028B000606060006000600FE03FE07E60F060E01C
:1028C00060C060C06041E03E780D172E0F0100002F
:1028D000E000E001C0018003000200040000000FDE
:1028E000C030E070606060006000600FE03FE07E3C
:1028F00060F060E060C060C06041E03E780D172E7F
:102900000F0100070007000F801DC018C0306020B5
:102910002000000FC030E070606060006000600F59
:10292000E03FE07E60F060E060C060C06041E03E9B
:10293000780D152A0F01001C103F2023C040000015
:102940000000000FC030E070606060006000600F49
:10295000E03FE07E60F060E060C060C06041E03E6B
:10296000780D152A0F01003060387030603060003B
:102970000000000FC030E070606060006000600F19
:10298000E03FE07E60F060E060C060C06041E03E3B
:10299000780D162C0F010007800D800CC00C800DE7
:1029A000800F0000000FC030E070606060006000C9
:1029B000600FE03FE07E60F060E060C060C06041BA
:1029C000E03E78130F2D1602001F8F0071B0C0601B
:1029D000E0C0E0E06080C06000C06007FFC01CC0D5
:1029E0000070C00060C000C0C000C0E000C1604016
:1029F000C270E07C1F000C162C0E01F907E0186075
:102A0000202060004000C000C000C000C000C00026
:102A1000E000701078603FC01F8002000200078055
:102A20000380018003000C000D172E0F0100180019
:102A30003C000C000600030001000180000007C0FC
:102A40001860203060184018C018FFF0C000C000A7
:102A5000C000E0006000700838300FC00D172E0F66
:102A60000100006000F000C001800180030006004A
:102A7000000007C01860203060184018C018FFF030
:102A8000C000C000C000E0006000700838300FC017
:102A90000D172E0F0100030007800F800CC0186077
:102AA00010202010000007C0186020306018401867
:102AB000C018FFF0C000C000C000E0006000700857
:102AC00038300FC00D152A0F0100183038703870DB
:102AD00030600000000007C0186020306018401807
:102AE000C018FFF0C000C000C000E0006000700827
:102AF00038300FC0071717090000E0E07030180CDD
:102B00000400187818181818181818181818181811
:102B10007E08171709010007070E0C183020003037
:102B2000F0303030303030303030303030FC091759
:102B30002E0900001C001C003E0077006300C180CD
:102B40008080000018007800180018001800180095
:102B500018001800180018001800180018001800B5
:102B60007E000A152A090000C180C180E3C0C1802F
:102B70000000000018007800180018001800180065
:102B80001800180018001800180018001800180085
:102B90007E000E172E1001000C003E1803F003C03B
:102BA0001EE030600070003807981878203C601CE8
:102BB000400CC00CC00CC00CC00CC008E018601069
:102BC000703038600F8010152A12010007080F902E
:102BD00018E01000000000007070B188360C380C4E
:102BE000380C300C300C300C300C300C300C300CFD
:102BF000300C300CFC3F0E172E1001001C001C0086
:102C00000E000600030001800080000007C018705D
:102C100020386018401CC00CC00CC00CC00CC00C8C
:102C2000E0086018701038200FC00E172E10010039
:102C30000070007000E001C001800300020000008D
:102C400007C0187020386018401CC00CC00CC00CA5
:102C5000C00CC00CE0086018701038200FC00E17B0
:102C60002E1001000380038007C00EC00C601830D6
:102C70003010000007C0187020386018401CC00CCD
:102C8000C00CC00CC00CC00CE008601870103820DC
:102C90000FC00E152A1001000E081F9011E0200031
:102CA0000000000007C0187020386018401CC00CDD
:102CB000C00CC00CC00CC00CE008601870103820AC
:102CC0000FC00E152A100100183018303870183057
:102CD0000000000007C0187020386018401CC00CAD
:102CE000C00CC00CC00CC00CE0086018701038207C
:102CF0000FC00B0A140D01040600060006000000B8
:102D00000000FFE000000600060006000E10201084
:102D100001FF07CC18782078607840FCC1DCC18CBA
:102D2000C38CC70CC60CEC087C1878107820CFC078
:102D300080000F172E1101001C001C000E00070060
:102D400003000180008000003018F078301830183F
:102D50003018301830183018301830183018301833
:102D6000303818DE0F180F172E1101000070007098
:102D700000E000C001800100020000003018F0787F
:102D80003018301830183018301830183018301803
:102D900030183018303818DE0F180F172E110100B8
:102DA0000380038007C00EE00C6018301010000094
:102DB0003018F078301830183018301830183018B3
:102DC0003018301830183018303818DE0F180F153A
:102DD0002A11010018301C3818301830000000008B
:102DE0003018F07830183018301830183018301883
:102DF0003018301830183018303818DE0F18101FFF
:102E00003E10FFF8001C001C00380070006000C07D
:102E1000008000007E1F1C061C040C0C0E0C0E080B
:102E2000061807180310033003B001A001E001E009
:102E300000C000C000800180018003007E007C0093
:102E4000F8000F20401101F81000F00030003000B1
:102E50003000300030003000300030F03318341CC7
:102E6000380C300E3006300630063006300630049E
:102E7000300C38083C1037E03000300030003000B3
:102E8000300030003000FE00101D3A10FFF8060C34
:102E90000E1C0E1C060C000000007E1F1C061C04ED
:102EA0000C0C0E0C0E08061807180310033003B0A4
:102EB00001A001E001E000C000C0008001800180AD
:102EC00003007E007C00F8006E2111241FBECFEFAE
:102ED000D8E0DEBFCDBF11E0A0E0B1E0E2E6FAE568
:102EE00002C005900D92A43AB107D9F723E0A4EAF5
:102EF000B1E001C01D92A33CB207E1F717E1C5E6BE
:102F0000D7E104C02197FE010E94E82CC436D10706
:102F1000C9F70E94D0220C942F2D0C940000089524
:102F200080E008952091E0023091E10228173907EE
:102F300099F19093E1028093E002009739F120919A
:102F4000F302FC01211129C03596E491E093F402CB
:102F50000C96FC0184918093F5028091F402082E76
:102F6000000C990B2091F502821B910927FD939586
:102F70002091F602203441F0829FC001112426E006
:102F8000969587952A95E1F78093F70280E997E176
:102F90009093F2028093F1020895213031F43F962C
:102FA000E491E093F4024096D4CF3D96E491E0930F
:102FB000F4020E96CECF3FB7F894809135029091EF
:102FC0003602A0913702B091380226B5A89B05C001
:102FD0002F3F19F00196A11DB11D3FBFBA2FA92F98
:102FE000982F8827BC01CD01620F711D811D911D95
:102FF00042E0660F771F881F991F4A95D1F7089501
:103000002FB7F894609131027091320280913302AF
:10301000909134022FBF0895AF92BF92CF92DF926A
:10302000EF92FF920F931F93CF93DF936C017B017D
:103030008B01040F151FEB015E01AE18BF08C0170E
:10304000D10759F06991D601ED91FC910190F08181
:10305000E02DC6010995892B79F7C501DF91CF9144
:103060001F910F91FF90EF90DF90CF90BF90AF90A6
:103070000895FC01538D448D252F30E0842F90E07E
:10308000821B930B541710F0CF9608950197089563
:10309000FC01918D828D981761F0A28DAE0FBF2F2C
:1030A000B11D5D968C91928D9F5F9F73928F90E082
:1030B00008958FEF9FEF0895FC01918D828D9817F1
:1030C00031F0828DE80FF11D858D90E008958FEF2E
:1030D0009FEF0895FC01918D228D892F90E0805CF7
:1030E0009F4F821B91098F73992708958BE392E07C
:1030F0000E946A1821E0892B09F420E0822F0895AC
:1031000080E090E0892B29F00E94761881110C94C0
:1031100000000895FC01A48DA80FB92FB11DA35A7A
:10312000BF4F2C91848D90E001968F739927848FE7
:10313000A689B7892C93A089B1898C91837080640A
:103140008C93938D848D981306C00288F389E02DAB
:1031500080818F7D80830895EF92FF920F931F935C
:10316000CF93DF93EC0181E0888F9B8D8C8D98133A
:103170001AC0E889F989808185FF15C09FB7F89446
:10318000EE89FF896083E889F98980818370806492
:1031900080839FBF81E090E0DF91CF911F910F91DD
:1031A000FF90EF900895F62E0B8D10E00F5F1F4FEC
:1031B0000F731127E02E8C8D8E110CC00FB607FCFB
:1031C000FACFE889F989808185FFF5CFCE010E9489
:1031D0008A18F1CFEB8DEC0FFD2FF11DE35AFF4F55
:1031E000F0829FB7F8940B8FEA89FB898081806217
:1031F000CFCFCF93DF93EC01888D8823B9F0AA89D4
:10320000BB89E889F9898C9185FD03C0808186FDA1
:103210000DC00FB607FCF7CF8C9185FFF2CF8081F0
:1032200085FFEDCFCE010E948A18E9CFDF91CF91C3
:103230000895DC011696ED91FC91179712968C91EA
:10324000481B477081E090E001C0880F4A95EAF77B
:10325000E60FF11D3081222319F0832B808308951E
:1032600080958323FBCFFB014181DC0112962C91D9
:103270001297421768F013962C911397241740F079
:10328000608115962C91621718F424810C941919F9
:103290000895FC0180819281980F92832181921779
:1032A00060F494819F5F94839381890F821710F05B
:1032B0008FEF820F838381E0089580E00895FC0101
:1032C000128280818150838314820895DB01ED9105
:1032D000FC9109940F931F93CF93DF931F92CDB767
:1032E000DEB70091DE021091DF02E0910D03F09154
:1032F0000E0382E0099530E020E04AE0B8018CED51
:1033000092E00E946619182FE0910D03F0910E03D0
:1033100083E00995E0910D03F0910E0380E009959B
:103320001123B9F16091DE027091DF029E012F5FDF
:103330003F4F46E48CED92E00E94661989818093AC
:10334000DC026091DE027091DF029E012F5F3F4F31
:1033500047E48CED92E00E94661989818093DD023A
:103360006091DE027091DF0230E020E048E48CEDF5
:1033700092E00E9466198093E7026091DE027091EC
:10338000DF022FE033E047E18CED92E00E94661906
:1033900011E0812F0F90DF91CF911F910F91089530
:1033A0000F931F93CF93DF938C01C8EDD2E0EDA96B
:1033B000FEA982E00995EDA9FEA981E0099530E01A
:1033C00020E044E1B8018CED92E00E9466192FE004
:1033D00033E047E1B8018CED92E00E946619EDA957
:1033E000FEA980E0DF91CF911F910F9109940F9377
:1033F0001F93CF93E091EA02F091EB02309719F01E
:103400008CED92E009950091DE021091DF02E091CF
:103410000D03F0910E0382E00995E0910D03F09108
:103420000E0381E0099530E020E045E1B8018CED24
:1034300092E00E946619C82F882341F02FE033E004
:1034400047E1B8018CED92E00E946619E0910D030E
:10345000F0910E0380E009958C2FCF911F910F9171
:1034600008950B96FC01849108950A96FC018491BD
:103470000895FC01849108950E94391A882321F04F
:10348000823011F083E0089586E00895FC01E60F94
:10349000F11D849190E0982F88273196E4918E0F4A
:1034A000911D089568E00C94461A66E00C94461A43
:1034B0005F926F927F928F929F92AF92BF92CF92C4
:1034C000DF92EF92FF920F931F93CF93DF93EC0164
:1034D000E62EF42EC22E0C811D81C8010E94391ADD
:1034E000D82E8C819D810E943C1A982E21E0AA241E
:1034F000AA94D21202C02FE0A22E8C819D810E943C
:10350000351AD82E8C819D810E94311AB82E8C815B
:103510009D810E94521AE0E6EC1578F4009769F05C
:10352000080F191F91E6D92EBC14C0F4188A1B8A03
:103530001C8A198A1A8A80E0A0C08C819D810E9411
:10354000551AF0E4FC1538F4009729F0080F191FFC
:1035500081E4D82EE9CF0F5E1F4FE6CFBD1430F3C4
:10356000892D90E0F80124912F3F31F40F5F1F4F18
:10357000BD14E1F2D394F6CFCD1072C08C819D8141
:103580000E94391A98012F5F3F4FF801882319F0E4
:10359000823009F04EC084918B8BF90124912C8BE1
:1035A000F8013396E491E88BF8013496E491E98BC5
:1035B000F8013596E491EA8B0115110509F4BBCFAA
:1035C0008C819D810E943C1A3C89F31A9A89F91AD0
:1035D0009FEF930F9F0D2CA94EA94F1508F449C0DA
:1035E000921718F49F1508F047C02B899989E90EA6
:1035F0009FEF920F9E0D4BA95DA95E1508F44DC07B
:10360000941718F49E1508F037C0080F111D295F94
:10361000722E7694769476946F2C630E5E01FCE1A4
:10362000AF0EB11C872C912CF61431F15E2C680181
:103630004AC08491982F9F7092509A8B82958F7078
:10364000898BF9012491822F8F708C8B22952F709A
:103650002B8BF8013296E491E295EF70E88BACCFBA
:103660003296E491EA21E80FF92FF11D0E0F1F1F8A
:103670007FCF921708F0B6CF8889DF91CF911F9145
:103680000F91FF90EF90DF90CF90BF90AF909F9001
:103690008F907F906F905F900895941708F0B2CF4D
:1036A000EBCFF60184916A817B815C8EFD8E1F8E4B
:1036B0008E8F95014BE3CE010E946619FFEFCF1A62
:1036C000DF0A28E0520E8C2D801B871550F3080D61
:1036D000191DF394A9CFEF92FF920F931F93CF93ED
:1036E000DF93F82E062FE42E152FE091F102F091D2
:1036F000F2028CED92E00995080FCE2DD12F10E04B
:103700002991211108C0812FDF91CF911F910F9135
:10371000FF90EF900895402F6F2D8CED92E00E9466
:10372000581AF80E180FECCF2EE93FE0009709F475
:103730000895F9013197F1F70197F8CFCF93DF930F
:1037400000D0CDB7DEB720ED37E03A8329839091E2
:10375000BC00982311F081E00FC029813A81232B0E
:1037600081F480913A0281FDF6CF80913902811176
:103770000DC091E0909339020F900F90DF91CF919F
:10378000089529813A8121503109DFCF80E0F4CFBB
:1037900084EA8093BC0061E080E80E949E1B811156
:1037A00002C080E008958091B900887F883051F090
:1037B000803141F0809139028111F3CF82E0809312
:1037C0003902EFCF88E78093BB0084E88093BC0088
:1037D00062E080E80E949E1B882319F380913A02E0
:1037E00081FD05C08091B900887F883119F781E09B
:1037F000089584E98093BC0064E080E10C949E1BF2
:103800008093BB0084E88093BC0063E080E80E9462
:103810009E1B8823A1F080913A0281FD0DC080910A
:10382000B900887F883241F080913902811106C049
:1038300092E090933902089581E0089580E0089520
:1038400010923902089580933A021092B90084FFD1
:1038500005C08CE08093B8000C94201C88E4FACF5B
:10386000CF93DF93FC0123A5222389F0EC010E9472
:10387000C81B811104C080E0DF91CF9108958EA113
:10388000811107C00E94001C8823A9F31BA681E0B8
:10389000F3CF80E4F7CF0F931F93CF93DF93C62F1F
:1038A000D42F8901633001F138F4613099F062302E
:1038B00009F449C0C1E012C0663029F1673091F1C6
:1038C0006530C1F70E94301C811117C00E94F91B9E
:1038D000C0E004C0FC0186A50E94231C8C2FDF9150
:1038E000CF911F910F910895FC0116A221E023A70B
:1038F0004111E0CF0E94F91BDDCF8D2F0E94001CEB
:103900008111D8CFE3CF0E94301C8823F9F2DD2348
:1039100089F2F80181918F010E94001C8823B1F285
:10392000D150F5CF0E94301C882381F2DD2311F2A3
:10393000F80184910E94001CC82F882379F20F5F40
:103940001F4FD150F3CFFC0146A321E023A7B2CFF4
:10395000DB011496ED91FC9130E020E065E00994E4
:10396000DB011496ED91FC9130E020E062E00994D7
:10397000DB011496ED91FC9130E020E063E00994C6
:10398000CF92DF92EF92FF920F931F93CF93DF932B
:103990008C017B016A0180E0F601C491811110C0A5
:1039A00081E0CF3F49F04C2FB701C8010E94A81C0D
:1039B000882309F444C080E0BFEFCB1ADB0AECCFC8
:1039C0004FEFCF3F89F3CE3FD9F1C03FA0F7C03EC4
:1039D00038F04C2F4F70B701C8010E94B01CEBCFDC
:1039E000C03D38F04C2F4F70B701C8010E94B81C81
:1039F000E2CFC03CF8F0D7011496ED91FC9130E095
:103A000020E040E064E0C8010995C295C07FCE5F28
:103A1000D0E0CE010E94941BD7011496ED91FC9149
:103A200030E020E041E064E0C8010995CE010E9449
:103A3000941BC1CFC7FDBFCF8C2F90E0F8CF80E0A3
:103A4000DF91CF911F910F91FF90EF90DF90CF907A
:103A50000895AF92BF92CF92DF92FF920F931F9380
:103A6000CF93DF936C018B01F42EE90180E14817BD
:103A700009F47EC0841778F1AAE04A1709F461C0FE
:103A8000BFE04B1709F47FC0F80102811381F2E314
:103A9000FF1609F4DDC0FF1508F48EC085E1F816A5
:103AA00009F4DBC0A7E1FA1609F4ECC0B4E1FB129B
:103AB00065C0D8011696ED91FC91179715968C91DB
:103AC0008E0F9F2F911D11928E179F07E1F7C8014E
:103AD0000E945F1953C0E1E14E1709F451C0F5E1AE
:103AE0004F13D2CFFB01A280B3804CE750E0C60158
:103AF0000E94C01CD50114964C91406BB801C601C0
:103B00000E94A81C41E0B801C6010E94B01CF5014A
:103B100026813781D8011496ED91FC91D501159637
:103B20004C9166E0C601099581111CC080E0DF91CF
:103B3000CF911F910F91FF90DF90CF90BF90AF90EA
:103B40000895DB011496ED91FC9130E020E042E015
:103B500061E0C601099544E850E0B801C6010E9441
:103B6000C01C92CF40E0B801C6010E94B81C8CCFA7
:103B700043E750E0B801C6010E94C01C81E0D7CFE6
:103B800048E650E0F7CF41E0C6010E94B81C40E093
:103B9000B801C6010E94B01C41E8B801C6010E94EC
:103BA000A81C4881B801C6010E94A81C40E0B801C9
:103BB000C6010E94B81CE2CFE6E4FE1609F46CC010
:103BC000F7E4FF1609F46DC08BE3F812D7CF9981A3
:103BD0008B8138E0390F813031F0833011F0392F8B
:103BE00002C0392F985021E0D80113964C91491703
:103BF00008F420E041E0391708F040E091E0F801D6
:103C00005281351708F490E0322F342B932319F4A6
:103C1000242309F4B3CFFA80D12CC12C843048F48A
:103C200090E0FC01EE5EFE4FC080825F9E4FDC01A3
:103C3000DC90F7FE04C0BE01C8010E9433198881E0
:103C40008C0D888389818D0D8983FF0C91F796CF28
:103C5000BE01C8010E94331991CFC8010E944919C1
:103C6000882309F463CFD8011696ED91FC9117973C
:103C700015968C918E0F9F2F911D11928E179F0775
:103C8000E1F77CCF1882F801828189838581815098
:103C90008A8383818B8372CFD80115968C91888318
:103CA0006DCFF8018181FBCFCF93DF93EC018A8543
:103CB0009B85AC85BD858E839F83A887B9870E942D
:103CC00000186A837B838C839D8381E0898388834A
:103CD000DF91CF910895CF93DF93EC018E819F8187
:103CE000A885B9858A839B83AC83BD830E94001815
:103CF0006A877B878C879D8781E089838883DF91B2
:103D0000CF910895DF92EF92FF920F931F93CF937D
:103D1000DF93EC01D62E1CAD0BAD7C0184E0E80EE8
:103D2000F11CE98DFA8DC7010995412F480F2D2D02
:103D3000602FC7010E94581A9BAD890F8BAF81E09D
:103D400090E0DF91CF911F910F91FF90EF90DF9066
:103D50000895682F88ED92E00C94821E089590E0FB
:103D600080E00895FC0101900020E9F73197AF0150
:103D7000481B590BBC0188ED92E00C940C188F92F3
:103D80009F92AF92BF920F931F93CF93DF93CDB7C4
:103D9000DEB7A1970FB6F894DEBF0FBECDBF19A254
:103DA000423008F44AE08E010F5D1F4F842E912CA3
:103DB000B12CA12CA50194010E94C62CE62FB901BB
:103DC000CA01EA30F4F4E05DD801EE938D01232BB3
:103DD000242B252B79F790E080E0109719F0CD0186
:103DE0000E94B21EA1960FB6F894DEBF0FBECDBFE3
:103DF000DF91CF911F910F91BF90AF909F908F90C7
:103E00000895E95CE1CF009711F00C94B21E90E0A8
:103E100080E008954F925F926F927F928F929F926F
:103E2000AF92BF92CF92DF92EF92FF920F931F93C8
:103E3000CF936B017C01742EAC019B010E949D2CE1
:103E4000882399F084E391E0CF911F910F91FF9027
:103E5000EF90DF90CF90BF90AF909F908F907F902A
:103E60006F905F904F900C94B21E46015701E894FA
:103E7000B7F82FEF3FEF4FE75FE7C501B4010E94AE
:103E80009D2C81110DC02FEF3FEF4FE75FE7C5017C
:103E9000B4010E94CC2A18161CF488E391E0D4CF18
:103EA0002FEF3FEF4FE75FE4C701B6010E942B2CD5
:103EB00018161CF48CE391E0C7CF2FEF3FEF4FE7CC
:103EC0005FECC701B6010E94CC2A87FDF3CF20E04A
:103ED00030E0A901C701B6010E94CC2A10E000E041
:103EE00087FF08C08DE20E94A91E8C01F7FAF094AA
:103EF000F7F8F094C0E060E070E080E09FE37C16AB
:103F000041F020E030E040E251E40E94D12ACF5F4E
:103F1000F6CFA70196010E94602A2B013C010E9466
:103F20004A2B4B015C014AE00E94BF1E7C01E00E5F
:103F3000F11ECC23B1F1C501B4010E94792B9B0184
:103F4000AC01C301B2010E945F2A4B015C018EE209
:103F50000E94A91EE80EF91EC15018F120E030E0C1
:103F600040E251E4C501B4010E94302C2B013C0118
:103F70000E944A2B4B01B12CA12C4AE0C501B4018F
:103F80000E94BF1EE80EF91EC501B4010E94792BE4
:103F90009B01AC01C301B2010E945F2A4B015C018D
:103FA000DBCFC701CF911F910F91FF90EF90DF9072
:103FB000CF90BF90AF909F908F907F906F905F90C9
:103FC0004F900895CF93C82F8A3020F480E491E079
:103FD0000E94031F6C2F70E090E080E04AE0CF91D8
:103FE0000C94BF1E2F923F924F925F926F927F92DE
:103FF0008F929F92AF92BF92CF92DF92EF92FF92F9
:104000000F931F93CF93DF93D82FC92F8B010E945B
:10401000232A24E630E040E050E00E94C62C49010B
:104020009B01AC0160E876E988E990E00E94A22C4F
:104030006B017C01F80191828082ED2FFC2F219190
:10404000822F022E000C990BC0970A97C0F32E32D4
:1040500039F51F0180E8882E86E9982E88E9A82E78
:10406000B12C9AE0492E512C612C712CF101C19197
:104070001F010C2E000CDD0BE097CA30D10580F437
:10408000C501B401A30192010E94C62C49015A0145
:10409000DE010E94F92CC60ED71EE81EF91EE6CFDF
:1040A000A5E0B0E0A70196010E94EE2C6F5F7F4F64
:1040B0008F4F9F4F23E030E040E050E00E94C62C3D
:1040C000F80122833383448355831682DF91CF9195
:1040D0001F910F91FF90EF90DF90CF90BF90AF9026
:1040E0009F908F907F906F905F904F903F902F9018
:1040F00008951F93CF93DF93EC0118811D3209F4CB
:104100002196CE010E94232A9B01AC01A4E6B0E0D7
:104110000E94EE2CAB01BC01FE012991822F022EE0
:10412000000C990BC0970A97B8F32E3231F58181B4
:10413000082E000C990BC0978A309105F0F4AAE084
:10414000A89F9001A99F300D1124C901330FAA0B1C
:10415000BB0B480F591F6A1F7B1F8281082E000C62
:10416000990BC0978A30910540F4092E000CAA0BD8
:10417000BB0B480F591F6A1F7B1F1D3239F4709506
:104180006095509541955F4F6F4F7F4FCB01BA01BE
:10419000DF91CF911F9108951F920F920FB60F924A
:1041A00011242F933F938F939F93AF93BF9380914D
:1041B000310290913202A0913302B09134023091D9
:1041C000300223E0230F2D3758F50196A11DB11DB4
:1041D000209330028093310290933202A0933302F5
:1041E000B09334028091350290913602A09137024B
:1041F000B09138020196A11DB11D809335029093B4
:104200003602A0933702B0933802BF91AF919F91CD
:104210008F913F912F910F900FBE0F901F90189587
:1042200026E8230F0296A11DB11DD2CF1F920F9237
:104230000FB60F9211242F933F934F935F936F9379
:104240007F938F939F93AF93BF93EF93FF938BE3F2
:1042500092E00E948A18FF91EF91BF91AF919F91D8
:104260008F917F916F915F914F913F912F910F901F
:104270000FBE0F901F9018951F920F920FB60F92BE
:1042800011242F938F939F93EF93FF93E0914B0211
:10429000F0914C028081E0915102F091520282FD36
:1042A0001BC09081809154028F5F8F7320915502C3
:1042B000821741F0E0915402F0E0E55CFD4F958FEC
:1042C00080935402FF91EF919F918F912F910F90C6
:1042D0000FBE0F901F9018958081F4CF10923E0270
:1042E00010923D0288EE93E0A0E0B0E080933F02A0
:1042F00090934002A0934102B09342028AE191E080
:1043000090933C0280933B0285EC90E090934802AE
:104310008093470284EC90E090934A028093490294
:1043200080EC90E090934C0280934B0281EC90E003
:1043300090934E0280934D0282EC90E09093500255
:1043400080934F0286EC90E090935202809351024A
:104350001092540210925502109256021092570277
:10436000109216031092170310921903109218035B
:1043700010921A0310921B0310921C0310921D033B
:1043800010921E031092200310921F03109221031B
:1043900010922203109223031092240310922503FB
:1043A00010922703109226031092280310922903DB
:1043B00010922A0310922B0310922C0310922E03BA
:1043C00010922D0310922F0310923003109231039C
:1043D0001092320310923303109238031092390373
:1043E00010923A0310923B0310923C0310923D034B
:1043F000109246031092470310924803109249030B
:1044000010924A0310924B031092540310925503DA
:1044100010925A0310925B0310925C0310925D039A
:104420001092620310926303109268031092690362
:1044300010926A0310926B03109270031092710332
:1044400010927603109277031092780310927903FA
:1044500010927E0310927F031092840310928503C2
:10446000109286031092870310928C0310928D0392
:10447000109292031092930310929403109295035A
:1044800010929A0310929B0382E08093AB031092E8
:10449000AC031092AD031092AE031092B0031092D1
:1044A000AF031092B2031092B1031092B3031092B3
:1044B000B4031092B5031092B6031092B703109292
:1044C000B8031092B9031092BA031092BB03109272
:1044D000BC031092BD031092BE031092BF03109252
:1044E000C0031092C1031092C20310929C03109259
:1044F000DB021092DA028CE291E09093D902809371
:10450000D802109213031092140310921503109204
:10451000E1021092E0021092E3021092E202109285
:10452000E50281E08093E40282E28093E602109249
:10453000EB021092EA02EFEFF2E08DE093E02FEF52
:1045400021938E179F07E1F781E08093FC0220E919
:1045500037E13093F2022093F1028093F30210923C
:10456000F4021092F50280E48093F6021092F702B2
:104570008FE897E190930E0380930D0388E091E01C
:104580009093DF028093DE0282E080930A030E9410
:104590006A198CE291E09093D9028093D802089531
:1045A000CF93DF93CDB7DEB728970FB6F894DEBF71
:1045B0000FBECDBF789484B5826084BD84B5816020
:1045C00084BD85B5826085BD85B5816085BD8091DE
:1045D0006E00816080936E00109281008091810056
:1045E000826080938100809181008160809381004E
:1045F000809180008160809380008091B100846010
:104600008093B1008091B00081608093B000809170
:104610007A00846080937A0080917A00826080932F
:104620007A0080917A00816080937A0080917A008C
:10463000806880937A001092C100E0914B02F09163
:104640004C0282E08083E0914702F09148021082A0
:10465000E0914902F0914A028FEC8083109253025C
:10466000E0914F02F091500286E08083E0914D028C
:10467000F0914E02808180618083E0914D02F09143
:104680004E02808188608083E0914D02F0914E025D
:10469000808180688083E0914D02F0914E0280819C
:1046A0008F7D808380911503811105C081E0809307
:1046B00015030E946A198091DE029091DF020E9428
:1046C000D0198AEA90E00E9492174EE451E06AE025
:1046D00083E20E946B1B89E29BE00E9492174AE5ED
:1046E00051E068E28AE00E946B1B8AEA90E00E9437
:1046F000921741E651E06CE387E30E946B1B0E9436
:10470000F7198111DECF0E94DB174B015C0130ED00
:10471000C32E37E0D32EE12CF12C0E94DB17681951
:1047200079098A099B09683E734081059105A8F3C0
:1047300021E0C21AD108E108F10838EE830E33E017
:10474000931EA11CB11CC114D104E104F10429F78A
:1047500024E6422E512C612C712C92E0F92E01E0BE
:104760008BE392E00E946A18181619060CF0D5C265
:104770008BE392E00E944818182F8091B303909128
:10478000B403A091B503B091B6030196A11DB11D6C
:104790008093B3039093B403A093B503B093B6038F
:1047A000143209F499C2E091AD0315320CF0C7C080
:1047B0001A3019F01D3009F09CC2EF3008F03CC1EE
:1047C000F0E0E456FC4F108280919B03882309F4AB
:1047D00041C120919C03822F022E000C990B3FEBCC
:1047E000320F363008F0B7C0C7978295807F90911E
:1047F0009D03292F092E000C330B4FEB490F463038
:1048000008F0B1C027533109820F90919A038913A0
:1048100000C18091BF039091C003A091C103B091EA
:10482000C2030196A11DB11D8093BF039093C003E5
:10483000A093C103B093C2038091AE03882399F083
:104840008091B7039091B803A091B903B091BA03D6
:104850000196A11DB11D8093B7039093B803A09357
:10486000B903B093BA03F091AB03F983FF2309F4C2
:1048700083C0F130A9F588E393E00E946B1E86E4C3
:1048800093E00E946B1E8091AE03882349F187E07C
:10489000E6E2F3E0A8E1B3E001900D928A95E1F73A
:1048A00087E0EDE2F3E0AFE1B3E001900D928A958D
:1048B000E1F70E94001860933403709335038093EE
:1048C000360390933703298120931703209316030F
:1048D00084E593E00E94541E82E693E00E94541EF9
:1048E0008091B1039091B2039A838983E981FA811F
:1048F000EF2B09F4A1C0E091B103F091B20366A1DE
:1049000077A1E981FA8186A197A10E94102D892BB8
:1049100009F092C069817A81CB0140960E94192DDD
:104920000E940018E981FA8160A371A382A393A376
:1049300005A304A322A533A53A832983D7CF1A322E
:1049400009F43BCF1C3209F0D4C180919A0381272E
:1049500080939A0332CF2156263018F48755910957
:1049600044CFC09742CF9156963018F4275531095D
:104970004BCF2053310948CF86E493E00E946B1E51
:104980008091AE03882321F187E0E6E2F3E0A8E11D
:10499000B3E001900D928A95E1F787E0EDE2F3E054
:1049A000AFE1B3E001900D928A95E1F70E94001803
:1049B00060933403709335038093360390933703E9
:1049C000009317030093160380E793E00E94541EA0
:1049D0008091880390918903A0918A03B0918B0301
:1049E0008093840390938503A0938603B0938703F9
:1049F0000E94001860938003709381038093820368
:104A00009093830300937F0300937E038CE893E0ED
:104A100065CF8091BB039091BC03A091BD03B09181
:104A2000BE030196A11DB11D8093BB039093BC03EF
:104A3000A093BD03B093BE038091AC038F5F8093BE
:104A4000AC031092AD0381E01A3209F080E080934C
:104A50009B0386CE9091AC03911146C068E671E04D
:104A60008CE993E00E94102D892B41F06EE671E0F5
:104A70008CE993E00E94102D892B01F50093AB0384
:104A80008091AF039091B0039093B2038093B103F0
:104A90008091B1039091B2039A838983009761F268
:104AA0006CE973E0FC0186A197A10E94102D97FF8D
:104AB00095C3E981FA8182A593A5E6CF64E771E009
:104AC0008CE993E00E94102D892B41F06AE771E098
:104AD0008CE993E00E94102D892B19F41092AB03FE
:104AE000CFCFF092AB03CCCFE091AB03E23009F42F
:104AF00048C080919C03882309F443C020E2E29FD0
:104B0000F0011124E92B3197E932F10508F039C0A1
:104B1000E457FA4D0C94E82CB525FF2506260D2602
:104B200010263E26452652265F26C125C125C125D1
:104B3000C125C125C125C125C125C125C125C12545
:104B4000C125C125C125C125C125C125C125C12535
:104B5000C125C125C125C125B525F925FF25062675
:104B60000D2610261726242631268CE993E00E9474
:104B7000792060934C0370934D0380934E03909380
:104B80004F038091B1039091B2039A838983E0909F
:104B9000AC03E981FA81EF2B09F44ECFE091B10328
:104BA000F091B20366A177A1E981FA8186A197A16C
:104BB0000E94102D892B09F03FCFE981FA8180A551
:104BC00091A52E2D30E0281739070CF435CF821728
:104BD000930739F440E150E06CE973E0CF010E94A3
:104BE000202DE981FA8102A4F3A5E02DFA83E9835F
:104BF000CECF91E0813409F445C090E043C066E235
:104C000073E08CE993E00E94F21FBBCF91E0833503
:104C100009F090E090932C03B4CF6DE273E0F1CFF4
:104C200091E0873509F090E090933303AACF8CE9A7
:104C300093E00E94792060935E0370935F038093FA
:104C40006003909361039DCF8CE993E00E947920EB
:104C500060936C0370936D0380936E0390936F0366
:104C600090CF8CE993E00E94232A60933E037093D7
:104C70003F03809340039093410383CF91E08133BE
:104C80000CF4BBCF9093AE037CCF8CE993E00E94F1
:104C9000232A609388037093890380938A039093F7
:104CA0008B036FCF8CE993E00E9479206093960389
:104CB00070939703809398039093990362CF8CE944
:104CC00093E00E94792060937A0370937B03809332
:104CD0007C0390937D0355CF1092AD031092AC03EB
:104CE00010929A03F092AB0310929B031092AE03C2
:104CF00037CDEE3040F481E08E0F8093AD03F0E0CD
:104D0000E456FC4F108380919B03811129CD809143
:104D10009A03182710939A0323CD809128028111BA
:104D20000DC00E94001860932402709325028093A6
:104D300026029093270281E0809328020E940018A7
:104D40000091240210912502209126023091270221
:104D5000601B710B820B930B693E734081059105BB
:104D600008F464C30E940018609324027093250223
:104D7000809326029093270280911503811105C02C
:104D800081E0809315030E946A198091DE02909160
:104D9000DF020E94D01984E6282E312C06E489E235
:104DA0009BE00E949217109213032AE220931403AF
:104DB00010924703C0904803D0904903E0904A0303
:104DC000F0904B03C701B60120E432E44FE050E01D
:104DD0000E94C62C2983283110F02851298380E8AD
:104DE00091E00E94031F89810E94E21F83E891E005
:104DF0000E94031FC701B60120E137E240E050E006
:104E00000E94C62CCA01B901A30192010E94C62CBE
:104E1000862F0E94E21F83E891E00E94031FC701D2
:104E2000B601A30192010E94C62CCA01B901A301D7
:104E300092010E94C62C862F0E94E21F81E891E019
:104E40000E94031F8AEA90E00E94921710921303B7
:104E500030E4309314031092390360913A03709157
:104E60003B0380913C0390913D0320E137E240E019
:104E700050E00E94C62C80E491E02A3010F082E8D5
:104E800091E00E94031F1092390360913A037091E0
:104E90003B0380913C0390913D0320E137E240E0E9
:104EA00050E00E94C62CCA01B901772788279927AC
:104EB0004AE00E94BF1E8DE20E94A91E1092390393
:104EC00060913A0370913B0380913C0390913D03C4
:104ED000A30192010E94C62CCA01B901A30192014B
:104EE0000E94C62C80E491E06A3010F082E891E0E4
:104EF0000E94031F1092390360913A0370913B03A3
:104F000080913C0390913D03A30192010E94C62C25
:104F1000CA01B901A30192010E94C62C4AE00E9475
:104F2000BF1E8DE20E94A91E1092390360913A03C0
:104F300070913B0380913C0390913D03A30192014A
:104F40000E94C62CCB018053984FB1010E94B22C15
:104F5000BC0190E080E04AE00E94BF1E8AEA90E037
:104F60000E949217109213038AE080931403109208
:104F70007F038091840390918503A0918603B09173
:104F80008703892B8A2B8B2B09F0A6C085E891E03B
:104F90000E94031F8AEA90E00E9492170093130375
:104FA00080E48093140380917E03882301F11092A2
:104FB0007F038091840390918503A0918603B09133
:104FC000870384369105A105B10588F48AE991E04B
:104FD0000E94031F10927F036091840370918503E8
:104FE00080918603909187034AE00E94BF1E109231
:104FF0007F038091840390918503A0918603B091F3
:105000008703892B8A2B8B2B09F40CC21092170370
:1050100060912103709122038091230390912403D6
:105020000E94792B28E23BE64EE65EE40E94D12AFC
:105030006B017C0160911F037091200390E080E080
:105040000E94792B9B01AC01C701B6010E94602A26
:10505000109125031111905820E034E244E759E4FF
:105060000E94302C6B017C0160911A0370911B032C
:1050700080911C0390911D030E94792B28E23BE64E
:105080004EE65EE40E94D12A4B015C016091180358
:105090007091190390E080E00E94792B9B01AC0194
:1050A000C501B4010E94602AE0911E03E983E11169
:1050B000905820E034E244E759E40E94302C4B0140
:1050C0005C011111B6C020E539EA4BE25DE4C7018D
:1050D000B6010E94602ABFC01092170360911A03A4
:1050E00070911B0380911C0390911D030E94792BEA
:1050F00028E23BE64EE65EE40E94D12A6B017C0189
:10510000609118037091190390E080E00E94792B60
:105110009B01AC01C701B6010E94602A6B017C01B2
:1051200080911E03882309F461C0F7FAF094F7F820
:10513000F094C701B601905842E00E940A1F20E097
:1051400030E0A901C701B6010E94CC2A87FF5DC0EB
:1051500082E491E00E94031F86E991E00E94031F10
:105160001092170360912103709122038091230311
:10517000909124030E94792B28E23BE64EE65EE400
:105180000E94D12A6B017C0160911F037091200362
:1051900090E080E00E94792B9B01AC01C701B60131
:1051A0000E94602A6B017C0180912503882381F194
:1051B000F7FAF094F7F8F094C701B601905842E07E
:1051C0000E940A1F20E030E0A901C701B6010E9439
:1051D000CC2A87FF2BC088E491E0DACE892B09F432
:1051E0002BCC1092B2031092B10326CC20E030E019
:1051F000A901C701B6010E942B2C18160CF099CFFB
:1052000042E0C701B6010E940A1F85E491E0A2CFE7
:1052100020E030E0A901C701B6010E942B2C18162E
:105220005CF642E0C701B6010E940A1F8BE491E0E0
:10523000AFCE20E030E0A901C701B6010E942B2CBF
:1052400018160CF040CFA701960160E579EA8BE2D1
:105250009DE40E945F2A6B017C01F981F11109C074
:1052600020E539EA4BEA5CE4C501B4010E94602AFA
:1052700011C020E030E0A901C501B4010E942B2C2F
:10528000181674F7A501940160E579EA8BEA9CE4AD
:105290000E945F2A4B015C018AEA90E00E9492170B
:1052A00086E5809313038AE08093140381E891E0FC
:1052B0000E94031F20E836E948E95BE4C701B60114
:1052C0000E94D12A0E94432B69837A838B839C831B
:1052D00089818F5B0E94A91E20E836E948E15BE4E2
:1052E000C501B4010E94D12A0E94432B6D837E83A5
:1052F0008F8398878D818F5B0E94A91E29813A81B7
:10530000B901330F880B990B0E947B2B20E836E9FB
:1053100048E95BE40E94302C9B01AC01C701B60157
:105320000E945F2A20E030E040E251E40E94302CED
:1053300020E030E040EA51E40E94D12A20E034E24B
:1053400044E759E40E94D12A0E94432B80E3860F50
:105350000E94A91EED81FE81BF01FF0F880B990BF2
:105360000E947B2B20E836E948E15BE40E94302C68
:105370009B01AC01C501B4010E945F2A20E034E228
:1053800044E759E40E94D12A0E94432B80E3860F10
:105390000E94A91E20E034E244EF59E4C701B6019F
:1053A0000E94D12A6B017C010E94432B072E000C26
:1053B000880B990B0E947B2B9B01AC01C701B601A6
:1053C0000E945F2A20E030E040EC51E40E94302C43
:1053D0000E94432B81E4860F0E94A91E20E034E244
:1053E00044E759E4C501B4010E94D12A6B017C0154
:1053F0000E94432B072E000C880B990B0E947B2BDD
:105400009B01AC01C701B6010E945F2A20E030E099
:1054100040EC51E40E94302C0E94432B81E4860F23
:105420000E94A91E0E94F7198111B9CC80E090E07A
:10543000892B09F492C90E947618882309F48DC932
:105440000E9400008AC91F93FC0199278827BC018C
:10545000E89411911032E9F3193010F01E30C8F3BE
:105460001B3251F01D3249F4689406C00E944A2A4A
:10547000610F711D811D911D119110531A30B0F3F0
:105480003EF490958095709561957F4F8F4F9F4F1B
:105490001F910895592F482F372F262F660F771FFA
:1054A000881F991F660F771F881F991F620F731F30
:1054B000841F951F660F771F881F991F08955058E6
:1054C000BB27AA270E94772A0C94F12B0E94E32B7A
:1054D00038F00E94EA2B20F039F49F3F19F426F4AB
:1054E0000C94E02B0EF4E095E7FB0C94DA2BE92FFB
:1054F0000E94022C58F3BA176207730784079507B6
:1055000020F079F4A6F50C94242C0EF4E0950B2EE3
:10551000BA2FA02D0B01B90190010C01CA01A00105
:105520001124FF27591B99F0593F50F4503E68F160
:105530001A16F040A22F232F342F4427585FF3CFA1
:10554000469537952795A795F0405395C9F77EF472
:105550001F16BA0B620B730B840BBAF09150A1F0BB
:10556000FF0FBB1F661F771F881FC2F70EC0BA0F41
:10557000621F731F841F48F4879577956795B795C9
:10558000F7959E3F08F0B0CF9395880F08F09927C4
:10559000EE0F9795879508950E94B62B08F481E049
:1055A00008950E94E52A0C94F12B0E94EA2B58F0F2
:1055B0000E94E32B40F029F45F3F29F00C94DA2B92
:1055C00051110C94252C0C94E02B0E94022C68F3B2
:1055D0009923B1F3552391F3951B550BBB27AA27AC
:1055E00062177307840738F09F5F5F4F220F331FE6
:1055F000441FAA1FA9F335D00E2E3AF0E0E832D0AE
:1056000091505040E695001CCAF72BD0FE2F29D0B0
:10561000660F771F881FBB1F261737074807AB0782
:10562000B0E809F0BB0B802DBF01FF2793585F4FF7
:105630003AF09E3F510578F00C94DA2B0C94252C0F
:105640005F3FE4F3983ED4F3869577956795B795D9
:10565000F7959F5FC9F7880F911D9695879597F9E4
:105660000895E1E0660F771F881FBB1F621773075D
:105670008407BA0720F0621B730B840BBA0BEE1F72
:1056800088F7E09508950E944A2B6894B1110C9414
:10569000252C08950E940A2C88F09F5798F0B92F66
:1056A0009927B751B0F0E1F0660F771F881F991F57
:1056B0001AF0BA95C9F714C0B13091F00E94242CA9
:1056C000B1E008950C94242C672F782F8827B85FB9
:1056D00039F0B93FCCF3869577956795B395D9F7AF
:1056E0003EF490958095709561957F4F8F4F9F4FB9
:1056F0000895E89409C097FB3EF4909580957095C5
:1057000061957F4F8F4F9F4F9923A9F0F92F96E90D
:10571000BB279395F695879577956795B795F11182
:10572000F8CFFAF4BB0F11F460FF1BC06F5F7F4F1F
:105730008F4F9F4F16C0882311F096E911C0772331
:1057400021F09EE8872F762F05C0662371F096E83A
:10575000862F70E060E02AF09A95660F771F881F09
:10576000DAF7880F9695879597F90895990F0008AD
:10577000550FAA0BE0E8FEEF16161706E807F90723
:10578000C0F012161306E407F50798F0621B730BBE
:10579000840B950B39F40A2661F0232B242B252B3F
:1057A00021F408950A2609F4A140A6958FEF811DE2
:1057B000811D089597F99F6780E870E060E0089583
:1057C0009FEF80EC089500240A9416161706180619
:1057D0000906089500240A941216130614060506F5
:1057E0000895092E0394000C11F4882352F0BB0F86
:1057F00040F4BF2B11F460FF04C06F5F7F4F8F4FE9
:105800009F4F089557FD9058440F551F59F05F3F23
:1058100071F04795880F97FB991F61F09F3F79F0D2
:1058200087950895121613061406551FF2CF469554
:10583000F1DF08C0161617061806991FF1CF8695D6
:105840007105610508940895E894BB2766277727BA
:10585000CB0197F908950E94B62B08F48FEF0895B5
:105860000E94432C0C94F12B0E94E32B38F00E94F1
:10587000EA2B20F0952311F00C94DA2B0C94E02BFA
:1058800011240C94252C0E94022C70F3959FC1F3D7
:10589000950F50E0551F629FF001729FBB27F00DDE
:1058A000B11D639FAA27F00DB11DAA1F649F662733
:1058B000B00DA11D661F829F2227B00DA11D621F82
:1058C000739FB00DA11D621F839FA00D611D221F3C
:1058D000749F3327A00D611D231F849F600D211D20
:1058E000822F762F6A2F11249F5750409AF0F1F0A3
:1058F00088234AF0EE0FFF1FBB1F661F771F881F0C
:1059000091505040A9F79E3F510580F00C94DA2B3E
:105910000C94252C5F3FE4F3983ED4F3869577955D
:105920006795B795F795E7959F5FC1F7FE2B880FB1
:10593000911D9695879597F908950E94B62B880B2F
:10594000990B0895DB018F939F930E94EE2CBF91DA
:10595000AF91A29F800D911DA39F900DB29F900DBE
:1059600011240895AA1BBB1B51E107C0AA1FBB1F2E
:10597000A617B70710F0A61BB70B881F991F5A95DB
:10598000A9F780959095BC01CD010895A1E21A2E4A
:10599000AA1BBB1BFD010DC0AA1FBB1FEE1FFF1FD3
:1059A000A217B307E407F50720F0A21BB30BE40B23
:1059B000F50B661F771F881F991F1A9469F760956A
:1059C0007095809590959B01AC01BD01CF01089524
:1059D000EE0FFF1F0590F491E02D09940E94012D18
:1059E000A59F900DB49F900DA49F800D911D112433
:1059F0000895B7FF0C94EE2C0E94EE2C821B930BA3
:105A00000895A29FB001B39FC001A39F700D811D97
:105A10001124911DB29F700D811D1124911D0895B7
:105A2000FB01DC018D91019080190110D9F3990BD4
:105A30000895FB01DC0101900D920020E1F708952B
:105A4000FB01DC014150504048F001900D920020D4
:105A5000C9F701C01D9241505040E0F70895F894F5
:025A6000FFCF76
:105A6200084000000080A401291D00014B1C000118
:105A720000FF0100FF0000000000AC180C183918EC
:105A8200F9186A1848185C1800000000821E0C18E9
:105A9200AF1EAE1E6E616E00696E66006F766600A6
:105AA2003000205300204E00205700204500475070
:105AB20053202D204649454C44005351314B534D00
:105AC20000536C6177656B004750524D4300474E5F
:105AD200524D4300475047474100474E4747410018
